{
  "_format": "hh-sol-artifact-1",
  "contractName": "Store",
  "sourceName": "contracts/Store.sol",
  "abi": [
    {
      "inputs": [
        {
          "internalType": "address",
          "name": "props_",
          "type": "address"
        },
        {
          "internalType": "address",
          "name": "payee_",
          "type": "address"
        }
      ],
      "stateMutability": "nonpayable",
      "type": "constructor"
    },
    {
      "anonymous": false,
      "inputs": [
        {
          "indexed": true,
          "internalType": "address",
          "name": "previousOwner",
          "type": "address"
        },
        {
          "indexed": true,
          "internalType": "address",
          "name": "newOwner",
          "type": "address"
        }
      ],
      "name": "OwnershipTransferred",
      "type": "event"
    },
    {
      "anonymous": false,
      "inputs": [
        {
          "indexed": false,
          "internalType": "address",
          "name": "account",
          "type": "address"
        }
      ],
      "name": "Paused",
      "type": "event"
    },
    {
      "anonymous": false,
      "inputs": [
        {
          "indexed": false,
          "internalType": "address",
          "name": "previousValue",
          "type": "address"
        },
        {
          "indexed": false,
          "internalType": "address",
          "name": "newValue",
          "type": "address"
        }
      ],
      "name": "PayeeUpdated",
      "type": "event"
    },
    {
      "anonymous": false,
      "inputs": [
        {
          "indexed": false,
          "internalType": "uint256",
          "name": "prop",
          "type": "uint256"
        },
        {
          "indexed": false,
          "internalType": "uint256",
          "name": "previousPrice",
          "type": "uint256"
        },
        {
          "indexed": false,
          "internalType": "uint256",
          "name": "newPrice",
          "type": "uint256"
        }
      ],
      "name": "PriceUpdated",
      "type": "event"
    },
    {
      "anonymous": false,
      "inputs": [
        {
          "indexed": false,
          "internalType": "address",
          "name": "previousValue",
          "type": "address"
        },
        {
          "indexed": false,
          "internalType": "address",
          "name": "newValue",
          "type": "address"
        }
      ],
      "name": "PropsUpdated",
      "type": "event"
    },
    {
      "anonymous": false,
      "inputs": [
        {
          "indexed": true,
          "internalType": "address",
          "name": "buyer",
          "type": "address"
        },
        {
          "indexed": false,
          "internalType": "uint256",
          "name": "prop",
          "type": "uint256"
        },
        {
          "indexed": false,
          "internalType": "uint256",
          "name": "amount",
          "type": "uint256"
        },
        {
          "indexed": false,
          "internalType": "uint256",
          "name": "price",
          "type": "uint256"
        }
      ],
      "name": "Purchased",
      "type": "event"
    },
    {
      "anonymous": false,
      "inputs": [
        {
          "indexed": false,
          "internalType": "uint256",
          "name": "prop",
          "type": "uint256"
        },
        {
          "indexed": false,
          "internalType": "uint256",
          "name": "previousSupply",
          "type": "uint256"
        },
        {
          "indexed": false,
          "internalType": "uint256",
          "name": "newSupply",
          "type": "uint256"
        }
      ],
      "name": "SupplyUpdated",
      "type": "event"
    },
    {
      "anonymous": false,
      "inputs": [
        {
          "indexed": false,
          "internalType": "address",
          "name": "previousValue",
          "type": "address"
        },
        {
          "indexed": false,
          "internalType": "address",
          "name": "newValue",
          "type": "address"
        }
      ],
      "name": "TokenUpdated",
      "type": "event"
    },
    {
      "anonymous": false,
      "inputs": [
        {
          "indexed": false,
          "internalType": "address",
          "name": "account",
          "type": "address"
        }
      ],
      "name": "Unpaused",
      "type": "event"
    },
    {
      "inputs": [],
      "name": "BOX",
      "outputs": [
        {
          "internalType": "uint256",
          "name": "",
          "type": "uint256"
        }
      ],
      "stateMutability": "view",
      "type": "function"
    },
    {
      "inputs": [],
      "name": "CARD",
      "outputs": [
        {
          "internalType": "uint256",
          "name": "",
          "type": "uint256"
        }
      ],
      "stateMutability": "view",
      "type": "function"
    },
    {
      "inputs": [],
      "name": "owner",
      "outputs": [
        {
          "internalType": "address",
          "name": "",
          "type": "address"
        }
      ],
      "stateMutability": "view",
      "type": "function"
    },
    {
      "inputs": [],
      "name": "paused",
      "outputs": [
        {
          "internalType": "bool",
          "name": "",
          "type": "bool"
        }
      ],
      "stateMutability": "view",
      "type": "function"
    },
    {
      "inputs": [],
      "name": "payee",
      "outputs": [
        {
          "internalType": "address",
          "name": "",
          "type": "address"
        }
      ],
      "stateMutability": "view",
      "type": "function"
    },
    {
      "inputs": [
        {
          "internalType": "uint256",
          "name": "",
          "type": "uint256"
        }
      ],
      "name": "propStores",
      "outputs": [
        {
          "internalType": "uint256",
          "name": "supply",
          "type": "uint256"
        },
        {
          "internalType": "uint256",
          "name": "price",
          "type": "uint256"
        }
      ],
      "stateMutability": "view",
      "type": "function"
    },
    {
      "inputs": [],
      "name": "props",
      "outputs": [
        {
          "internalType": "contract IProps",
          "name": "",
          "type": "address"
        }
      ],
      "stateMutability": "view",
      "type": "function"
    },
    {
      "inputs": [
        {
          "internalType": "uint256",
          "name": "prop",
          "type": "uint256"
        },
        {
          "internalType": "uint256",
          "name": "amount",
          "type": "uint256"
        }
      ],
      "name": "purchase",
      "outputs": [],
      "stateMutability": "payable",
      "type": "function"
    },
    {
      "inputs": [],
      "name": "renounceOwnership",
      "outputs": [],
      "stateMutability": "nonpayable",
      "type": "function"
    },
    {
      "inputs": [
        {
          "internalType": "address",
          "name": "value",
          "type": "address"
        }
      ],
      "name": "setPayee",
      "outputs": [],
      "stateMutability": "nonpayable",
      "type": "function"
    },
    {
      "inputs": [
        {
          "internalType": "uint256",
          "name": "prop",
          "type": "uint256"
        },
        {
          "internalType": "uint256",
          "name": "newPrice",
          "type": "uint256"
        }
      ],
      "name": "setPrice",
      "outputs": [],
      "stateMutability": "nonpayable",
      "type": "function"
    },
    {
      "inputs": [
        {
          "internalType": "address",
          "name": "value",
          "type": "address"
        }
      ],
      "name": "setProps",
      "outputs": [],
      "stateMutability": "nonpayable",
      "type": "function"
    },
    {
      "inputs": [
        {
          "internalType": "uint256",
          "name": "prop",
          "type": "uint256"
        },
        {
          "internalType": "uint256",
          "name": "newSupply",
          "type": "uint256"
        }
      ],
      "name": "setSupply",
      "outputs": [],
      "stateMutability": "nonpayable",
      "type": "function"
    },
    {
      "inputs": [
        {
          "internalType": "uint256",
          "name": "",
          "type": "uint256"
        }
      ],
      "name": "totalSales",
      "outputs": [
        {
          "internalType": "uint256",
          "name": "",
          "type": "uint256"
        }
      ],
      "stateMutability": "view",
      "type": "function"
    },
    {
      "inputs": [
        {
          "internalType": "address",
          "name": "newOwner",
          "type": "address"
        }
      ],
      "name": "transferOwnership",
      "outputs": [],
      "stateMutability": "nonpayable",
      "type": "function"
    },
    {
      "stateMutability": "payable",
      "type": "receive"
    }
  ],
  "bytecode": "0x608060405234801561001057600080fd5b50604051610f20380380610f2083398101604081905261002f916100e6565b6100383361007a565b6000805460ff60a01b1916905560018055600280546001600160a01b039384166001600160a01b03199182161790915560038054929093169116179055610119565b600080546001600160a01b038381166001600160a01b0319831681178455604051919092169283917f8be0079c531659141344cd1fd0a4f28419497f9722a3daafe3b4186f6b6457e09190a35050565b80516001600160a01b03811681146100e157600080fd5b919050565b600080604083850312156100f957600080fd5b610102836100ca565b9150610110602084016100ca565b90509250929050565b610df8806101286000396000f3fe6080604052600436106100ec5760003560e01c80638e352b4d1161008a578063f2fde38b11610059578063f2fde38b146102a0578063f7d97577146102c0578063fc784d49146102e0578063fd7512c01461030057600080fd5b80638e352b4d146101ea5780639499a6cc14610233578063ae90b21314610253578063bf3f6b3d1461027357600080fd5b80635c975abb116100c65780635c975abb1461017a57806370876c98146101a4578063715018a6146101b75780638da5cb5b146101cc57600080fd5b80630829844b146100f85780632060a15014610120578063410459ad1461015857600080fd5b366100f357005b600080fd5b34801561010457600080fd5b5061010d600181565b6040519081526020015b60405180910390f35b34801561012c57600080fd5b50600254610140906001600160a01b031681565b6040516001600160a01b039091168152602001610117565b34801561016457600080fd5b50610178610173366004610c66565b610315565b005b34801561018657600080fd5b50600054600160a01b900460ff166040519015158152602001610117565b6101786101b2366004610c96565b6103f9565b3480156101c357600080fd5b506101786107a9565b3480156101d857600080fd5b506000546001600160a01b0316610140565b3480156101f657600080fd5b5061021e610205366004610cb8565b6005602052600090815260409020805460019091015482565b60408051928352602083019190915201610117565b34801561023f57600080fd5b5061017861024e366004610c66565b6107df565b34801561025f57600080fd5b50600354610140906001600160a01b031681565b34801561027f57600080fd5b5061010d61028e366004610cb8565b60046020526000908152604090205481565b3480156102ac57600080fd5b506101786102bb366004610c66565b6108b2565b3480156102cc57600080fd5b506101786102db366004610c96565b61094d565b3480156102ec57600080fd5b506101786102fb366004610c96565b610a4e565b34801561030c57600080fd5b5061010d600281565b6000546001600160a01b031633146103485760405162461bcd60e51b815260040161033f90610cd1565b60405180910390fd5b6001600160a01b0381166103975760405162461bcd60e51b815260206004820152601660248201527543616e6e6f74206265207a65726f206164647265737360501b604482015260640161033f565b600380546001600160a01b038381166001600160a01b031983168117909355604080519190921680825260208201939093527fa9e5978bbfbf156599d86b750e4db433bc414c83e3ee93cae447582d6d42990b91015b60405180910390a15050565b600054600160a01b900460ff16156104465760405162461bcd60e51b815260206004820152601060248201526f14185d5cd8589b194e881c185d5cd95960821b604482015260640161033f565b6002600154036104985760405162461bcd60e51b815260206004820152601f60248201527f5265656e7472616e637947756172643a207265656e7472616e742063616c6c00604482015260640161033f565b6002600190815582908114806104ae5750600281145b6104ca5760405162461bcd60e51b815260040161033f90610d06565b60008381526005602052604090208261051e5760405162461bcd60e51b8152602060048201526016602482015275021b0b73737ba103132903d32b9379030b6b7bab73a160551b604482015260640161033f565b80548311156105655760405162461bcd60e51b8152602060048201526013602482015272496e73756666696369656e7420737570706c7960681b604482015260640161033f565b828160000160008282546105799190610d44565b90915550506000848152600460205260408120805485929061059c908490610d5d565b909155505060018101546000906105b4908590610d70565b905060018514801561064657506002546000906001600160a01b031662fdd58e336040516001600160e01b031960e084901b1681526001600160a01b03909116600482015260026024820152604401602060405180830381865afa158015610620573d6000803e3d6000fd5b505050506040513d601f19601f820116820180604052508101906106449190610d87565b115b15610665576064610658826050610d70565b6106629190610da0565b90505b803410156106ac5760405162461bcd60e51b8152602060048201526014602482015273496e73756666696369656e742062616c616e636560601b604482015260640161033f565b6003546106c2906001600160a01b031685610af8565b6002546001600160a01b031663731133e9336040516001600160e01b031960e084901b1681526001600160a01b0390911660048201526024810188905260448101879052608060648201526000608482015260a401600060405180830381600087803b15801561073157600080fd5b505af1158015610745573d6000803e3d6000fd5b505050506107503390565b60408051878152602081018790529081018390526001600160a01b0391909116907f2bdd59583c8e5cc64165e86af2482dbe93e85c98b355b788aa592465b3f6920e9060600160405180910390a2505060018055505050565b6000546001600160a01b031633146107d35760405162461bcd60e51b815260040161033f90610cd1565b6107dd6000610c16565b565b6000546001600160a01b031633146108095760405162461bcd60e51b815260040161033f90610cd1565b6001600160a01b0381166108585760405162461bcd60e51b815260206004820152601660248201527543616e6e6f74206265207a65726f206164647265737360501b604482015260640161033f565b600280546001600160a01b038381166001600160a01b031983168117909355604080519190921680825260208201939093527f116af77d84201bbee47eaf4abaa38e36531db07f623449a1084fc18288c8d72691016103ed565b6000546001600160a01b031633146108dc5760405162461bcd60e51b815260040161033f90610cd1565b6001600160a01b0381166109415760405162461bcd60e51b815260206004820152602660248201527f4f776e61626c653a206e6577206f776e657220697320746865207a65726f206160448201526564647265737360d01b606482015260840161033f565b61094a81610c16565b50565b6000546001600160a01b031633146109775760405162461bcd60e51b815260040161033f90610cd1565b8160018114806109875750600281145b6109a35760405162461bcd60e51b815260040161033f90610d06565b600082116109ea5760405162461bcd60e51b815260206004820152601460248201527343616e6e6f74206265207a65726f20707269636560601b604482015260640161033f565b60008381526005602090815260409182902060018101805490869055835187815292830181905292820185905291907f15819dd2fd9f6418b142e798d08a18d0bf06ea368f4480b7b0d3f75bd966bc48906060015b60405180910390a15050505050565b6000546001600160a01b03163314610a785760405162461bcd60e51b815260040161033f90610cd1565b816001811480610a885750600281145b610aa45760405162461bcd60e51b815260040161033f90610d06565b6000838152600560209081526040918290208054858255835187815292830181905292820185905291907f92f6bd8586464cb7b6719f990fab2a1744aefd78e7363e3e0ee60386296bed8190606001610a3f565b80471015610b485760405162461bcd60e51b815260206004820152601d60248201527f416464726573733a20696e73756666696369656e742062616c616e6365000000604482015260640161033f565b6000826001600160a01b03168260405160006040518083038185875af1925050503d8060008114610b95576040519150601f19603f3d011682016040523d82523d6000602084013e610b9a565b606091505b5050905080610c115760405162461bcd60e51b815260206004820152603a60248201527f416464726573733a20756e61626c6520746f2073656e642076616c75652c207260448201527f6563697069656e74206d61792068617665207265766572746564000000000000606482015260840161033f565b505050565b600080546001600160a01b038381166001600160a01b0319831681178455604051919092169283917f8be0079c531659141344cd1fd0a4f28419497f9722a3daafe3b4186f6b6457e09190a35050565b600060208284031215610c7857600080fd5b81356001600160a01b0381168114610c8f57600080fd5b9392505050565b60008060408385031215610ca957600080fd5b50508035926020909101359150565b600060208284031215610cca57600080fd5b5035919050565b6020808252818101527f4f776e61626c653a2063616c6c6572206973206e6f7420746865206f776e6572604082015260600190565b6020808252600e908201526d2137bc103a3cb8329032b93937b960911b604082015260600190565b634e487b7160e01b600052601160045260246000fd5b81810381811115610d5757610d57610d2e565b92915050565b80820180821115610d5757610d57610d2e565b8082028115828204841417610d5757610d57610d2e565b600060208284031215610d9957600080fd5b5051919050565b600082610dbd57634e487b7160e01b600052601260045260246000fd5b50049056fea26469706673582212208bcb7101a5c10f3134da66a9b68431f5e9e0883805a5f0d4ef4e127507f8185a64736f6c63430008110033",
  "linkReferences": {},
  "deployedLinkReferences": {}
}