{
  "_format": "hh-sol-artifact-1",
  "contractName": "Props",
  "sourceName": "contracts/Props.sol",
  "abi": [
    {
      "inputs": [
        {
          "internalType": "string",
          "name": "uri",
          "type": "string"
        }
      ],
      "stateMutability": "nonpayable",
      "type": "constructor"
    },
    {
      "anonymous": false,
      "inputs": [
        {
          "indexed": true,
          "internalType": "address",
          "name": "account",
          "type": "address"
        },
        {
          "indexed": true,
          "internalType": "address",
          "name": "operator",
          "type": "address"
        },
        {
          "indexed": false,
          "internalType": "bool",
          "name": "approved",
          "type": "bool"
        }
      ],
      "name": "ApprovalForAll",
      "type": "event"
    },
    {
      "anonymous": false,
      "inputs": [
        {
          "indexed": false,
          "internalType": "address",
          "name": "account",
          "type": "address"
        }
      ],
      "name": "Paused",
      "type": "event"
    },
    {
      "anonymous": false,
      "inputs": [
        {
          "indexed": true,
          "internalType": "bytes32",
          "name": "role",
          "type": "bytes32"
        },
        {
          "indexed": true,
          "internalType": "bytes32",
          "name": "previousAdminRole",
          "type": "bytes32"
        },
        {
          "indexed": true,
          "internalType": "bytes32",
          "name": "newAdminRole",
          "type": "bytes32"
        }
      ],
      "name": "RoleAdminChanged",
      "type": "event"
    },
    {
      "anonymous": false,
      "inputs": [
        {
          "indexed": true,
          "internalType": "bytes32",
          "name": "role",
          "type": "bytes32"
        },
        {
          "indexed": true,
          "internalType": "address",
          "name": "account",
          "type": "address"
        },
        {
          "indexed": true,
          "internalType": "address",
          "name": "sender",
          "type": "address"
        }
      ],
      "name": "RoleGranted",
      "type": "event"
    },
    {
      "anonymous": false,
      "inputs": [
        {
          "indexed": true,
          "internalType": "bytes32",
          "name": "role",
          "type": "bytes32"
        },
        {
          "indexed": true,
          "internalType": "address",
          "name": "account",
          "type": "address"
        },
        {
          "indexed": true,
          "internalType": "address",
          "name": "sender",
          "type": "address"
        }
      ],
      "name": "RoleRevoked",
      "type": "event"
    },
    {
      "anonymous": false,
      "inputs": [
        {
          "indexed": true,
          "internalType": "address",
          "name": "operator",
          "type": "address"
        },
        {
          "indexed": true,
          "internalType": "address",
          "name": "from",
          "type": "address"
        },
        {
          "indexed": true,
          "internalType": "address",
          "name": "to",
          "type": "address"
        },
        {
          "indexed": false,
          "internalType": "uint256[]",
          "name": "ids",
          "type": "uint256[]"
        },
        {
          "indexed": false,
          "internalType": "uint256[]",
          "name": "values",
          "type": "uint256[]"
        }
      ],
      "name": "TransferBatch",
      "type": "event"
    },
    {
      "anonymous": false,
      "inputs": [
        {
          "indexed": true,
          "internalType": "address",
          "name": "operator",
          "type": "address"
        },
        {
          "indexed": true,
          "internalType": "address",
          "name": "from",
          "type": "address"
        },
        {
          "indexed": true,
          "internalType": "address",
          "name": "to",
          "type": "address"
        },
        {
          "indexed": false,
          "internalType": "uint256",
          "name": "id",
          "type": "uint256"
        },
        {
          "indexed": false,
          "internalType": "uint256",
          "name": "value",
          "type": "uint256"
        }
      ],
      "name": "TransferSingle",
      "type": "event"
    },
    {
      "anonymous": false,
      "inputs": [
        {
          "indexed": false,
          "internalType": "string",
          "name": "value",
          "type": "string"
        },
        {
          "indexed": true,
          "internalType": "uint256",
          "name": "id",
          "type": "uint256"
        }
      ],
      "name": "URI",
      "type": "event"
    },
    {
      "anonymous": false,
      "inputs": [
        {
          "indexed": false,
          "internalType": "string",
          "name": "previousURI",
          "type": "string"
        },
        {
          "indexed": false,
          "internalType": "string",
          "name": "newURI",
          "type": "string"
        }
      ],
      "name": "URIUpdated",
      "type": "event"
    },
    {
      "anonymous": false,
      "inputs": [
        {
          "indexed": false,
          "internalType": "address",
          "name": "account",
          "type": "address"
        }
      ],
      "name": "Unpaused",
      "type": "event"
    },
    {
      "inputs": [],
      "name": "DEFAULT_ADMIN_ROLE",
      "outputs": [
        {
          "internalType": "bytes32",
          "name": "",
          "type": "bytes32"
        }
      ],
      "stateMutability": "view",
      "type": "function"
    },
    {
      "inputs": [],
      "name": "MINTER_ROLE",
      "outputs": [
        {
          "internalType": "bytes32",
          "name": "",
          "type": "bytes32"
        }
      ],
      "stateMutability": "view",
      "type": "function"
    },
    {
      "inputs": [
        {
          "internalType": "address",
          "name": "account",
          "type": "address"
        },
        {
          "internalType": "uint256",
          "name": "id",
          "type": "uint256"
        }
      ],
      "name": "balanceOf",
      "outputs": [
        {
          "internalType": "uint256",
          "name": "",
          "type": "uint256"
        }
      ],
      "stateMutability": "view",
      "type": "function"
    },
    {
      "inputs": [
        {
          "internalType": "address[]",
          "name": "accounts",
          "type": "address[]"
        },
        {
          "internalType": "uint256[]",
          "name": "ids",
          "type": "uint256[]"
        }
      ],
      "name": "balanceOfBatch",
      "outputs": [
        {
          "internalType": "uint256[]",
          "name": "",
          "type": "uint256[]"
        }
      ],
      "stateMutability": "view",
      "type": "function"
    },
    {
      "inputs": [
        {
          "internalType": "address",
          "name": "account",
          "type": "address"
        },
        {
          "internalType": "uint256",
          "name": "id",
          "type": "uint256"
        },
        {
          "internalType": "uint256",
          "name": "value",
          "type": "uint256"
        }
      ],
      "name": "burn",
      "outputs": [],
      "stateMutability": "nonpayable",
      "type": "function"
    },
    {
      "inputs": [
        {
          "internalType": "address",
          "name": "account",
          "type": "address"
        },
        {
          "internalType": "uint256[]",
          "name": "ids",
          "type": "uint256[]"
        },
        {
          "internalType": "uint256[]",
          "name": "values",
          "type": "uint256[]"
        }
      ],
      "name": "burnBatch",
      "outputs": [],
      "stateMutability": "nonpayable",
      "type": "function"
    },
    {
      "inputs": [],
      "name": "create",
      "outputs": [],
      "stateMutability": "nonpayable",
      "type": "function"
    },
    {
      "inputs": [
        {
          "internalType": "uint256",
          "name": "id",
          "type": "uint256"
        }
      ],
      "name": "exists",
      "outputs": [
        {
          "internalType": "bool",
          "name": "",
          "type": "bool"
        }
      ],
      "stateMutability": "view",
      "type": "function"
    },
    {
      "inputs": [],
      "name": "getCurrentTokenId",
      "outputs": [
        {
          "internalType": "uint256",
          "name": "",
          "type": "uint256"
        }
      ],
      "stateMutability": "view",
      "type": "function"
    },
    {
      "inputs": [
        {
          "internalType": "bytes32",
          "name": "role",
          "type": "bytes32"
        }
      ],
      "name": "getRoleAdmin",
      "outputs": [
        {
          "internalType": "bytes32",
          "name": "",
          "type": "bytes32"
        }
      ],
      "stateMutability": "view",
      "type": "function"
    },
    {
      "inputs": [
        {
          "internalType": "bytes32",
          "name": "role",
          "type": "bytes32"
        },
        {
          "internalType": "address",
          "name": "account",
          "type": "address"
        }
      ],
      "name": "grantRole",
      "outputs": [],
      "stateMutability": "nonpayable",
      "type": "function"
    },
    {
      "inputs": [
        {
          "internalType": "bytes32",
          "name": "role",
          "type": "bytes32"
        },
        {
          "internalType": "address",
          "name": "account",
          "type": "address"
        }
      ],
      "name": "hasRole",
      "outputs": [
        {
          "internalType": "bool",
          "name": "",
          "type": "bool"
        }
      ],
      "stateMutability": "view",
      "type": "function"
    },
    {
      "inputs": [
        {
          "internalType": "address",
          "name": "account",
          "type": "address"
        },
        {
          "internalType": "address",
          "name": "operator",
          "type": "address"
        }
      ],
      "name": "isApprovedForAll",
      "outputs": [
        {
          "internalType": "bool",
          "name": "",
          "type": "bool"
        }
      ],
      "stateMutability": "view",
      "type": "function"
    },
    {
      "inputs": [
        {
          "internalType": "address",
          "name": "account",
          "type": "address"
        },
        {
          "internalType": "uint256",
          "name": "id",
          "type": "uint256"
        },
        {
          "internalType": "uint256",
          "name": "amount",
          "type": "uint256"
        },
        {
          "internalType": "bytes",
          "name": "data",
          "type": "bytes"
        }
      ],
      "name": "mint",
      "outputs": [],
      "stateMutability": "nonpayable",
      "type": "function"
    },
    {
      "inputs": [
        {
          "internalType": "address",
          "name": "to",
          "type": "address"
        },
        {
          "internalType": "uint256[]",
          "name": "ids",
          "type": "uint256[]"
        },
        {
          "internalType": "uint256[]",
          "name": "amounts",
          "type": "uint256[]"
        },
        {
          "internalType": "bytes",
          "name": "data",
          "type": "bytes"
        }
      ],
      "name": "mintBatch",
      "outputs": [],
      "stateMutability": "nonpayable",
      "type": "function"
    },
    {
      "inputs": [],
      "name": "pause",
      "outputs": [],
      "stateMutability": "nonpayable",
      "type": "function"
    },
    {
      "inputs": [],
      "name": "paused",
      "outputs": [
        {
          "internalType": "bool",
          "name": "",
          "type": "bool"
        }
      ],
      "stateMutability": "view",
      "type": "function"
    },
    {
      "inputs": [
        {
          "internalType": "bytes32",
          "name": "role",
          "type": "bytes32"
        },
        {
          "internalType": "address",
          "name": "account",
          "type": "address"
        }
      ],
      "name": "renounceRole",
      "outputs": [],
      "stateMutability": "nonpayable",
      "type": "function"
    },
    {
      "inputs": [
        {
          "internalType": "bytes32",
          "name": "role",
          "type": "bytes32"
        },
        {
          "internalType": "address",
          "name": "account",
          "type": "address"
        }
      ],
      "name": "revokeRole",
      "outputs": [],
      "stateMutability": "nonpayable",
      "type": "function"
    },
    {
      "inputs": [
        {
          "internalType": "address",
          "name": "from",
          "type": "address"
        },
        {
          "internalType": "address",
          "name": "to",
          "type": "address"
        },
        {
          "internalType": "uint256[]",
          "name": "ids",
          "type": "uint256[]"
        },
        {
          "internalType": "uint256[]",
          "name": "amounts",
          "type": "uint256[]"
        },
        {
          "internalType": "bytes",
          "name": "data",
          "type": "bytes"
        }
      ],
      "name": "safeBatchTransferFrom",
      "outputs": [],
      "stateMutability": "nonpayable",
      "type": "function"
    },
    {
      "inputs": [
        {
          "internalType": "address",
          "name": "from",
          "type": "address"
        },
        {
          "internalType": "address",
          "name": "to",
          "type": "address"
        },
        {
          "internalType": "uint256",
          "name": "id",
          "type": "uint256"
        },
        {
          "internalType": "uint256",
          "name": "amount",
          "type": "uint256"
        },
        {
          "internalType": "bytes",
          "name": "data",
          "type": "bytes"
        }
      ],
      "name": "safeTransferFrom",
      "outputs": [],
      "stateMutability": "nonpayable",
      "type": "function"
    },
    {
      "inputs": [
        {
          "internalType": "address",
          "name": "operator",
          "type": "address"
        },
        {
          "internalType": "bool",
          "name": "approved",
          "type": "bool"
        }
      ],
      "name": "setApprovalForAll",
      "outputs": [],
      "stateMutability": "nonpayable",
      "type": "function"
    },
    {
      "inputs": [
        {
          "internalType": "string",
          "name": "newURI",
          "type": "string"
        }
      ],
      "name": "setURI",
      "outputs": [],
      "stateMutability": "nonpayable",
      "type": "function"
    },
    {
      "inputs": [
        {
          "internalType": "bytes4",
          "name": "interfaceId",
          "type": "bytes4"
        }
      ],
      "name": "supportsInterface",
      "outputs": [
        {
          "internalType": "bool",
          "name": "",
          "type": "bool"
        }
      ],
      "stateMutability": "view",
      "type": "function"
    },
    {
      "inputs": [
        {
          "internalType": "uint256",
          "name": "id",
          "type": "uint256"
        }
      ],
      "name": "totalSupply",
      "outputs": [
        {
          "internalType": "uint256",
          "name": "",
          "type": "uint256"
        }
      ],
      "stateMutability": "view",
      "type": "function"
    },
    {
      "inputs": [],
      "name": "unpause",
      "outputs": [],
      "stateMutability": "nonpayable",
      "type": "function"
    },
    {
      "inputs": [
        {
          "internalType": "uint256",
          "name": "",
          "type": "uint256"
        }
      ],
      "name": "uri",
      "outputs": [
        {
          "internalType": "string",
          "name": "",
          "type": "string"
        }
      ],
      "stateMutability": "view",
      "type": "function"
    }
  ],
  "bytecode": "0x60806040523480156200001157600080fd5b5060405162002c8f38038062002c8f833981016040819052620000349162000153565b6001805460ff19169055806200004a816200008b565b50620000586000336200009d565b620000847f9f2df0fed2c77648de5860a4cc508cd0818c85b8b8a1ab4ceeef8d981c8956a6336200009d565b5062000383565b6004620000998282620002b7565b5050565b6000828152602081815260408083206001600160a01b038516845290915290205460ff1662000099576000828152602081815260408083206001600160a01b03851684529091529020805460ff19166001179055620000f93390565b6001600160a01b0316816001600160a01b0316837f2f8788117e7eff1d82e926ec794901d17c78024a50270940304540a733656f0d60405160405180910390a45050565b634e487b7160e01b600052604160045260246000fd5b600060208083850312156200016757600080fd5b82516001600160401b03808211156200017f57600080fd5b818501915085601f8301126200019457600080fd5b815181811115620001a957620001a96200013d565b604051601f8201601f19908116603f01168101908382118183101715620001d457620001d46200013d565b816040528281528886848701011115620001ed57600080fd5b600093505b82841015620002115784840186015181850187015292850192620001f2565b600086848301015280965050505050505092915050565b600181811c908216806200023d57607f821691505b6020821081036200025e57634e487b7160e01b600052602260045260246000fd5b50919050565b601f821115620002b257600081815260208120601f850160051c810160208610156200028d5750805b601f850160051c820191505b81811015620002ae5782815560010162000299565b5050505b505050565b81516001600160401b03811115620002d357620002d36200013d565b620002eb81620002e4845462000228565b8462000264565b602080601f8311600181146200032357600084156200030a5750858301515b600019600386901b1c1916600185901b178555620002ae565b600085815260208120601f198616915b82811015620003545788860151825594840194600190910190840162000333565b5085821015620003735787850151600019600388901b60f8161c191681555b5050505050600190811b01905550565b6128fc80620003936000396000f3fe608060405234801561001057600080fd5b50600436106101a85760003560e01c80635c975abb116100f9578063bd85b03911610097578063e985e9c511610071578063e985e9c5146103ad578063efc81a8c146103e9578063f242432a146103f1578063f5298aca1461040457600080fd5b8063bd85b03914610353578063d539139314610373578063d547741f1461039a57600080fd5b80638456cb59116100d35780638456cb591461031d57806391d1485414610325578063a217fddf14610338578063a22cb4651461034057600080fd5b80635c975abb146102ec5780636b20c454146102f7578063731133e91461030a57600080fd5b80632eb2c2d6116101665780633f4ba83a116101405780633f4ba83a1461029a5780634e1273f4146102a25780634f558e79146102c257806356189236146102e457600080fd5b80632eb2c2d6146102615780632f2ff15d1461027457806336568abe1461028757600080fd5b8062fdd58e146101ad57806301ffc9a7146101d357806302fe5305146101f65780630e89341c1461020b5780631f7fdffa1461022b578063248a9ca31461023e575b600080fd5b6101c06101bb366004611ba2565b610417565b6040519081526020015b60405180910390f35b6101e66101e1366004611be2565b6104b3565b60405190151581526020016101ca565b610209610204366004611c9e565b6104be565b005b61021e610219366004611cee565b61051f565b6040516101ca9190611d57565b610209610239366004611e1e565b6105b3565b6101c061024c366004611cee565b60009081526020819052604090206001015490565b61020961026f366004611eb6565b610674565b610209610282366004611f5f565b610704565b610209610295366004611f5f565b61072f565b6102096107ad565b6102b56102b0366004611f8b565b6107c4565b6040516101ca9190612090565b6101e66102d0366004611cee565b600090815260056020526040902054151590565b6101c06108ed565b60015460ff166101e6565b6102096103053660046120a3565b6108fd565b610209610318366004612116565b610940565b6102096109e5565b6101e6610333366004611f5f565b6109f9565b6101c0600081565b61020961034e36600461216a565b610a22565b6101c0610361366004611cee565b60009081526005602052604090205490565b6101c07f9f2df0fed2c77648de5860a4cc508cd0818c85b8b8a1ab4ceeef8d981c8956a681565b6102096103a8366004611f5f565b610a2d565b6101e66103bb3660046121a6565b6001600160a01b03918216600090815260036020908152604080832093909416825291909152205460ff1690565b610209610a53565b6102096103ff3660046121d0565b610a90565b610209610412366004612234565b610ad5565b60006001600160a01b0383166104885760405162461bcd60e51b815260206004820152602b60248201527f455243313135353a2062616c616e636520717565727920666f7220746865207a60448201526a65726f206164647265737360a81b60648201526084015b60405180910390fd5b5060008181526002602090815260408083206001600160a01b03861684529091529020545b92915050565b60006104ad82610b18565b60006104ca8133610b58565b60006104d6600061051f565b90506104e183610bbc565b7f927a41e440ce6a96781dbee2e5693388ce49325e4729d62114f699d43dea385e8184604051610512929190612267565b60405180910390a1505050565b60606004805461052e90612295565b80601f016020809104026020016040519081016040528092919081815260200182805461055a90612295565b80156105a75780601f1061057c576101008083540402835291602001916105a7565b820191906000526020600020905b81548152906001019060200180831161058a57829003601f168201915b50505050509050919050565b7f9f2df0fed2c77648de5860a4cc508cd0818c85b8b8a1ab4ceeef8d981c8956a66105de8133610b58565b60005b8451811015610660578481815181106105fc576105fc6122cf565b602002602001015161060c6108ed565b101561064e5760405162461bcd60e51b81526020600482015260116024820152701d1bdad95b9259081b9bdd08199bdd5b99607a1b604482015260640161047f565b80610658816122fb565b9150506105e1565b5061066d85858585610bc8565b5050505050565b6001600160a01b038516331480610690575061069085336103bb565b6106f75760405162461bcd60e51b815260206004820152603260248201527f455243313135353a207472616e736665722063616c6c6572206973206e6f74206044820152711bdddb995c881b9bdc88185c1c1c9bdd995960721b606482015260840161047f565b61066d8585858585610d23565b6000828152602081905260409020600101546107208133610b58565b61072a8383610ed0565b505050565b6001600160a01b038116331461079f5760405162461bcd60e51b815260206004820152602f60248201527f416363657373436f6e74726f6c3a2063616e206f6e6c792072656e6f756e636560448201526e103937b632b9903337b91039b2b63360891b606482015260840161047f565b6107a98282610f54565b5050565b60006107b98133610b58565b6107c1610fb9565b50565b606081518351146108295760405162461bcd60e51b815260206004820152602960248201527f455243313135353a206163636f756e747320616e6420696473206c656e677468604482015268040dad2e6dac2e8c6d60bb1b606482015260840161047f565b600083516001600160401b0381111561084457610844611bff565b60405190808252806020026020018201604052801561086d578160200160208202803683370190505b50905060005b84518110156108e5576108b8858281518110610891576108916122cf565b60200260200101518583815181106108ab576108ab6122cf565b6020026020010151610417565b8282815181106108ca576108ca6122cf565b60209081029190910101526108de816122fb565b9050610873565b509392505050565b60006108f860065490565b905090565b6001600160a01b038316331480610919575061091983336103bb565b6109355760405162461bcd60e51b815260040161047f90612314565b61072a83838361104c565b60015460ff16156109635760405162461bcd60e51b815260040161047f9061235d565b7f9f2df0fed2c77648de5860a4cc508cd0818c85b8b8a1ab4ceeef8d981c8956a661098e8133610b58565b836109976108ed565b10156109d95760405162461bcd60e51b81526020600482015260116024820152701d1bdad95b9259081b9bdd08199bdd5b99607a1b604482015260640161047f565b61066d858585856111dd565b60006109f18133610b58565b6107c16112b5565b6000918252602082815260408084206001600160a01b0393909316845291905290205460ff1690565b6107a933838361130b565b600082815260208190526040902060010154610a498133610b58565b61072a8383610f54565b60015460ff1615610a765760405162461bcd60e51b815260040161047f9061235d565b6000610a828133610b58565b6107c1600680546001019055565b6001600160a01b038516331480610aac5750610aac85336103bb565b610ac85760405162461bcd60e51b815260040161047f90612314565b61066d85858585856113eb565b6001600160a01b038316331480610af15750610af183336103bb565b610b0d5760405162461bcd60e51b815260040161047f90612314565b61072a83838361150c565b60006001600160e01b03198216636cdb3d1360e11b1480610b4957506001600160e01b031982166303a24d0760e21b145b806104ad57506104ad82611611565b610b6282826109f9565b6107a957610b7a816001600160a01b03166014611646565b610b85836020611646565b604051602001610b96929190612387565b60408051601f198184030181529082905262461bcd60e51b825261047f91600401611d57565b60046107a98282612442565b6001600160a01b038416610bee5760405162461bcd60e51b815260040161047f90612501565b8151835114610c0f5760405162461bcd60e51b815260040161047f90612542565b33610c1f816000878787876117e8565b60005b8451811015610cbb57838181518110610c3d57610c3d6122cf565b602002602001015160026000878481518110610c5b57610c5b6122cf565b602002602001015181526020019081526020016000206000886001600160a01b03166001600160a01b031681526020019081526020016000206000828254610ca3919061258a565b90915550819050610cb3816122fb565b915050610c22565b50846001600160a01b031660006001600160a01b0316826001600160a01b03167f4a39dc06d4c0dbc64b70af90fd698a233a518aa5d07e595d983b8c0526c8f7fb8787604051610d0c92919061259d565b60405180910390a461066d81600087878787611819565b8151835114610d445760405162461bcd60e51b815260040161047f90612542565b6001600160a01b038416610d6a5760405162461bcd60e51b815260040161047f906125c2565b33610d798187878787876117e8565b60005b8451811015610e62576000858281518110610d9957610d996122cf565b602002602001015190506000858381518110610db757610db76122cf565b60209081029190910181015160008481526002835260408082206001600160a01b038e168352909352919091205490915081811015610e085760405162461bcd60e51b815260040161047f90612607565b60008381526002602090815260408083206001600160a01b038e8116855292528083208585039055908b16825281208054849290610e4790849061258a565b9250508190555050505080610e5b906122fb565b9050610d7c565b50846001600160a01b0316866001600160a01b0316826001600160a01b03167f4a39dc06d4c0dbc64b70af90fd698a233a518aa5d07e595d983b8c0526c8f7fb8787604051610eb292919061259d565b60405180910390a4610ec8818787878787611819565b505050505050565b610eda82826109f9565b6107a9576000828152602081815260408083206001600160a01b03851684529091529020805460ff19166001179055610f103390565b6001600160a01b0316816001600160a01b0316837f2f8788117e7eff1d82e926ec794901d17c78024a50270940304540a733656f0d60405160405180910390a45050565b610f5e82826109f9565b156107a9576000828152602081815260408083206001600160a01b0385168085529252808320805460ff1916905551339285917ff6391f5c32d9c69d2a47ea670b442974b53935d1edc7fd64eb21e047a839171b9190a45050565b60015460ff166110025760405162461bcd60e51b815260206004820152601460248201527314185d5cd8589b194e881b9bdd081c185d5cd95960621b604482015260640161047f565b6001805460ff191690557f5db9ee0a495bf2e6ff9c91a7834c1ba4fdd244a5e8aa4e537bd38aeae4b073aa335b6040516001600160a01b03909116815260200160405180910390a1565b6001600160a01b0383166110725760405162461bcd60e51b815260040161047f90612651565b80518251146110935760405162461bcd60e51b815260040161047f90612542565b60003390506110b6818560008686604051806020016040528060008152506117e8565b60005b835181101561117e5760008482815181106110d6576110d66122cf565b6020026020010151905060008483815181106110f4576110f46122cf565b60209081029190910181015160008481526002835260408082206001600160a01b038c1683529093529190912054909150818110156111455760405162461bcd60e51b815260040161047f90612694565b60009283526002602090815260408085206001600160a01b038b1686529091529092209103905580611176816122fb565b9150506110b9565b5060006001600160a01b0316846001600160a01b0316826001600160a01b03167f4a39dc06d4c0dbc64b70af90fd698a233a518aa5d07e595d983b8c0526c8f7fb86866040516111cf92919061259d565b60405180910390a450505050565b6001600160a01b0384166112035760405162461bcd60e51b815260040161047f90612501565b336112238160008761121488611974565b61121d88611974565b876117e8565b60008481526002602090815260408083206001600160a01b03891684529091528120805485929061125590849061258a565b909155505060408051858152602081018590526001600160a01b0380881692600092918516917fc3d58168c5ae7397731d063d5bbf3d657854427343f4c083240f7aacaa2d0f62910160405180910390a461066d816000878787876119bf565b60015460ff16156112d85760405162461bcd60e51b815260040161047f9061235d565b6001805460ff1916811790557f62e78cea01bee320cd4e420270b5ea74000d11b0c9f74754ebdbfc544b05a2583361102f565b816001600160a01b0316836001600160a01b03160361137e5760405162461bcd60e51b815260206004820152602960248201527f455243313135353a2073657474696e6720617070726f76616c20737461747573604482015268103337b91039b2b63360b91b606482015260840161047f565b6001600160a01b03838116600081815260036020908152604080832094871680845294825291829020805460ff191686151590811790915591519182527f17307eab39ab6107e8899845ad3d59bd9653f200f220920489ca2b5937696c31910160405180910390a3505050565b6001600160a01b0384166114115760405162461bcd60e51b815260040161047f906125c2565b3361142181878761121488611974565b60008481526002602090815260408083206001600160a01b038a168452909152902054838110156114645760405162461bcd60e51b815260040161047f90612607565b60008581526002602090815260408083206001600160a01b038b81168552925280832087850390559088168252812080548692906114a390849061258a565b909155505060408051868152602081018690526001600160a01b03808916928a821692918616917fc3d58168c5ae7397731d063d5bbf3d657854427343f4c083240f7aacaa2d0f62910160405180910390a46115038288888888886119bf565b50505050505050565b6001600160a01b0383166115325760405162461bcd60e51b815260040161047f90612651565b336115618185600061154387611974565b61154c87611974565b604051806020016040528060008152506117e8565b60008381526002602090815260408083206001600160a01b0388168452909152902054828110156115a45760405162461bcd60e51b815260040161047f90612694565b60008481526002602090815260408083206001600160a01b03898116808652918452828520888703905582518981529384018890529092908616917fc3d58168c5ae7397731d063d5bbf3d657854427343f4c083240f7aacaa2d0f62910160405180910390a45050505050565b60006001600160e01b03198216637965db0b60e01b14806104ad57506301ffc9a760e01b6001600160e01b03198316146104ad565b606060006116558360026126d8565b61166090600261258a565b6001600160401b0381111561167757611677611bff565b6040519080825280601f01601f1916602001820160405280156116a1576020820181803683370190505b509050600360fc1b816000815181106116bc576116bc6122cf565b60200101906001600160f81b031916908160001a905350600f60fb1b816001815181106116eb576116eb6122cf565b60200101906001600160f81b031916908160001a905350600061170f8460026126d8565b61171a90600161258a565b90505b6001811115611792576f181899199a1a9b1b9c1cb0b131b232b360811b85600f166010811061174e5761174e6122cf565b1a60f81b828281518110611764576117646122cf565b60200101906001600160f81b031916908160001a90535060049490941c9361178b816126ef565b905061171d565b5083156117e15760405162461bcd60e51b815260206004820181905260248201527f537472696e67733a20686578206c656e67746820696e73756666696369656e74604482015260640161047f565b9392505050565b60015460ff161561180b5760405162461bcd60e51b815260040161047f9061235d565b610ec8868686868686611a7a565b6001600160a01b0384163b15610ec85760405163bc197c8160e01b81526001600160a01b0385169063bc197c819061185d9089908990889088908890600401612706565b6020604051808303816000875af1925050508015611898575060408051601f3d908101601f1916820190925261189591810190612764565b60015b611944576118a4612781565b806308c379a0036118dd57506118b861279d565b806118c357506118df565b8060405162461bcd60e51b815260040161047f9190611d57565b505b60405162461bcd60e51b815260206004820152603460248201527f455243313135353a207472616e7366657220746f206e6f6e20455243313135356044820152732932b1b2b4bb32b91034b6b83632b6b2b73a32b960611b606482015260840161047f565b6001600160e01b0319811663bc197c8160e01b146115035760405162461bcd60e51b815260040161047f90612826565b604080516001808252818301909252606091600091906020808301908036833701905050905082816000815181106119ae576119ae6122cf565b602090810291909101015292915050565b6001600160a01b0384163b15610ec85760405163f23a6e6160e01b81526001600160a01b0385169063f23a6e6190611a03908990899088908890889060040161286e565b6020604051808303816000875af1925050508015611a3e575060408051601f3d908101601f19168201909252611a3b91810190612764565b60015b611a4a576118a4612781565b6001600160e01b0319811663f23a6e6160e01b146115035760405162461bcd60e51b815260040161047f90612826565b6001600160a01b038516611b015760005b8351811015611aff57828181518110611aa657611aa66122cf565b602002602001015160056000868481518110611ac457611ac46122cf565b602002602001015181526020019081526020016000206000828254611ae9919061258a565b90915550611af89050816122fb565b9050611a8b565b505b6001600160a01b038416610ec85760005b835181101561150357828181518110611b2d57611b2d6122cf565b602002602001015160056000868481518110611b4b57611b4b6122cf565b602002602001015181526020019081526020016000206000828254611b7091906128b3565b90915550611b7f9050816122fb565b9050611b12565b80356001600160a01b0381168114611b9d57600080fd5b919050565b60008060408385031215611bb557600080fd5b611bbe83611b86565b946020939093013593505050565b6001600160e01b0319811681146107c157600080fd5b600060208284031215611bf457600080fd5b81356117e181611bcc565b634e487b7160e01b600052604160045260246000fd5b601f8201601f191681016001600160401b0381118282101715611c3a57611c3a611bff565b6040525050565b60006001600160401b03831115611c5a57611c5a611bff565b604051611c71601f8501601f191660200182611c15565b809150838152848484011115611c8657600080fd5b83836020830137600060208583010152509392505050565b600060208284031215611cb057600080fd5b81356001600160401b03811115611cc657600080fd5b8201601f81018413611cd757600080fd5b611ce684823560208401611c41565b949350505050565b600060208284031215611d0057600080fd5b5035919050565b60005b83811015611d22578181015183820152602001611d0a565b50506000910152565b60008151808452611d43816020860160208601611d07565b601f01601f19169290920160200192915050565b6020815260006117e16020830184611d2b565b60006001600160401b03821115611d8357611d83611bff565b5060051b60200190565b600082601f830112611d9e57600080fd5b81356020611dab82611d6a565b604051611db88282611c15565b83815260059390931b8501820192828101915086841115611dd857600080fd5b8286015b84811015611df35780358352918301918301611ddc565b509695505050505050565b600082601f830112611e0f57600080fd5b6117e183833560208501611c41565b60008060008060808587031215611e3457600080fd5b611e3d85611b86565b935060208501356001600160401b0380821115611e5957600080fd5b611e6588838901611d8d565b94506040870135915080821115611e7b57600080fd5b611e8788838901611d8d565b93506060870135915080821115611e9d57600080fd5b50611eaa87828801611dfe565b91505092959194509250565b600080600080600060a08688031215611ece57600080fd5b611ed786611b86565b9450611ee560208701611b86565b935060408601356001600160401b0380821115611f0157600080fd5b611f0d89838a01611d8d565b94506060880135915080821115611f2357600080fd5b611f2f89838a01611d8d565b93506080880135915080821115611f4557600080fd5b50611f5288828901611dfe565b9150509295509295909350565b60008060408385031215611f7257600080fd5b82359150611f8260208401611b86565b90509250929050565b60008060408385031215611f9e57600080fd5b82356001600160401b0380821115611fb557600080fd5b818501915085601f830112611fc957600080fd5b81356020611fd682611d6a565b604051611fe38282611c15565b83815260059390931b850182019282810191508984111561200357600080fd5b948201945b838610156120285761201986611b86565b82529482019490820190612008565b9650508601359250508082111561203e57600080fd5b5061204b85828601611d8d565b9150509250929050565b600081518084526020808501945080840160005b8381101561208557815187529582019590820190600101612069565b509495945050505050565b6020815260006117e16020830184612055565b6000806000606084860312156120b857600080fd5b6120c184611b86565b925060208401356001600160401b03808211156120dd57600080fd5b6120e987838801611d8d565b935060408601359150808211156120ff57600080fd5b5061210c86828701611d8d565b9150509250925092565b6000806000806080858703121561212c57600080fd5b61213585611b86565b9350602085013592506040850135915060608501356001600160401b0381111561215e57600080fd5b611eaa87828801611dfe565b6000806040838503121561217d57600080fd5b61218683611b86565b91506020830135801515811461219b57600080fd5b809150509250929050565b600080604083850312156121b957600080fd5b6121c283611b86565b9150611f8260208401611b86565b600080600080600060a086880312156121e857600080fd5b6121f186611b86565b94506121ff60208701611b86565b9350604086013592506060860135915060808601356001600160401b0381111561222857600080fd5b611f5288828901611dfe565b60008060006060848603121561224957600080fd5b61225284611b86565b95602085013595506040909401359392505050565b60408152600061227a6040830185611d2b565b828103602084015261228c8185611d2b565b95945050505050565b600181811c908216806122a957607f821691505b6020821081036122c957634e487b7160e01b600052602260045260246000fd5b50919050565b634e487b7160e01b600052603260045260246000fd5b634e487b7160e01b600052601160045260246000fd5b60006001820161230d5761230d6122e5565b5060010190565b60208082526029908201527f455243313135353a2063616c6c6572206973206e6f74206f776e6572206e6f7260408201526808185c1c1c9bdd995960ba1b606082015260800190565b60208082526010908201526f14185d5cd8589b194e881c185d5cd95960821b604082015260600190565b7f416363657373436f6e74726f6c3a206163636f756e74200000000000000000008152600083516123bf816017850160208801611d07565b7001034b99036b4b9b9b4b733903937b6329607d1b60179184019182015283516123f0816028840160208801611d07565b01602801949350505050565b601f82111561072a57600081815260208120601f850160051c810160208610156124235750805b601f850160051c820191505b81811015610ec85782815560010161242f565b81516001600160401b0381111561245b5761245b611bff565b61246f816124698454612295565b846123fc565b602080601f8311600181146124a4576000841561248c5750858301515b600019600386901b1c1916600185901b178555610ec8565b600085815260208120601f198616915b828110156124d3578886015182559484019460019091019084016124b4565b50858210156124f15787850151600019600388901b60f8161c191681555b5050505050600190811b01905550565b60208082526021908201527f455243313135353a206d696e7420746f20746865207a65726f206164647265736040820152607360f81b606082015260800190565b60208082526028908201527f455243313135353a2069647320616e6420616d6f756e7473206c656e677468206040820152670dad2e6dac2e8c6d60c31b606082015260800190565b808201808211156104ad576104ad6122e5565b6040815260006125b06040830185612055565b828103602084015261228c8185612055565b60208082526025908201527f455243313135353a207472616e7366657220746f20746865207a65726f206164604082015264647265737360d81b606082015260800190565b6020808252602a908201527f455243313135353a20696e73756666696369656e742062616c616e636520666f60408201526939103a3930b739b332b960b11b606082015260800190565b60208082526023908201527f455243313135353a206275726e2066726f6d20746865207a65726f206164647260408201526265737360e81b606082015260800190565b60208082526024908201527f455243313135353a206275726e20616d6f756e7420657863656564732062616c604082015263616e636560e01b606082015260800190565b80820281158282048414176104ad576104ad6122e5565b6000816126fe576126fe6122e5565b506000190190565b6001600160a01b0386811682528516602082015260a06040820181905260009061273290830186612055565b82810360608401526127448186612055565b905082810360808401526127588185611d2b565b98975050505050505050565b60006020828403121561277657600080fd5b81516117e181611bcc565b600060033d111561279a5760046000803e5060005160e01c5b90565b600060443d10156127ab5790565b6040516003193d81016004833e81513d6001600160401b0381602484011181841117156127da57505050505090565b82850191508151818111156127f25750505050505090565b843d870101602082850101111561280c5750505050505090565b61281b60208286010187611c15565b509095945050505050565b60208082526028908201527f455243313135353a204552433131353552656365697665722072656a656374656040820152676420746f6b656e7360c01b606082015260800190565b6001600160a01b03868116825285166020820152604081018490526060810183905260a0608082018190526000906128a890830184611d2b565b979650505050505050565b818103818111156104ad576104ad6122e556fea2646970667358221220e696c9b74d9c2d92133bdbb9030402eb3d439906fddfd96975bd6cfeb3df501764736f6c63430008110033",
  "linkReferences": {},
  "deployedLinkReferences": {}
}