{
  "_format": "hh-sol-artifact-1",
  "contractName": "Cards",
  "sourceName": "contracts/Cards.sol",
  "abi": [
    {
      "inputs": [],
      "stateMutability": "nonpayable",
      "type": "constructor"
    },
    {
      "anonymous": false,
      "inputs": [
        {
          "indexed": true,
          "internalType": "address",
          "name": "owner",
          "type": "address"
        },
        {
          "indexed": true,
          "internalType": "address",
          "name": "approved",
          "type": "address"
        },
        {
          "indexed": true,
          "internalType": "uint256",
          "name": "tokenId",
          "type": "uint256"
        }
      ],
      "name": "Approval",
      "type": "event"
    },
    {
      "anonymous": false,
      "inputs": [
        {
          "indexed": true,
          "internalType": "address",
          "name": "owner",
          "type": "address"
        },
        {
          "indexed": true,
          "internalType": "address",
          "name": "operator",
          "type": "address"
        },
        {
          "indexed": false,
          "internalType": "bool",
          "name": "approved",
          "type": "bool"
        }
      ],
      "name": "ApprovalForAll",
      "type": "event"
    },
    {
      "anonymous": false,
      "inputs": [
        {
          "indexed": false,
          "internalType": "string",
          "name": "previousBaseURI",
          "type": "string"
        },
        {
          "indexed": false,
          "internalType": "string",
          "name": "newBaseURI",
          "type": "string"
        }
      ],
      "name": "BaseURIUpdated",
      "type": "event"
    },
    {
      "anonymous": false,
      "inputs": [
        {
          "indexed": true,
          "internalType": "uint256",
          "name": "tokenId",
          "type": "uint256"
        },
        {
          "indexed": true,
          "internalType": "address",
          "name": "to",
          "type": "address"
        },
        {
          "indexed": false,
          "internalType": "uint256",
          "name": "level",
          "type": "uint256"
        },
        {
          "indexed": false,
          "internalType": "uint256",
          "name": "quality",
          "type": "uint256"
        },
        {
          "indexed": false,
          "internalType": "uint256",
          "name": "score",
          "type": "uint256"
        }
      ],
      "name": "Minted",
      "type": "event"
    },
    {
      "anonymous": false,
      "inputs": [
        {
          "indexed": false,
          "internalType": "address",
          "name": "account",
          "type": "address"
        }
      ],
      "name": "Paused",
      "type": "event"
    },
    {
      "anonymous": false,
      "inputs": [
        {
          "indexed": true,
          "internalType": "bytes32",
          "name": "role",
          "type": "bytes32"
        },
        {
          "indexed": true,
          "internalType": "bytes32",
          "name": "previousAdminRole",
          "type": "bytes32"
        },
        {
          "indexed": true,
          "internalType": "bytes32",
          "name": "newAdminRole",
          "type": "bytes32"
        }
      ],
      "name": "RoleAdminChanged",
      "type": "event"
    },
    {
      "anonymous": false,
      "inputs": [
        {
          "indexed": true,
          "internalType": "bytes32",
          "name": "role",
          "type": "bytes32"
        },
        {
          "indexed": true,
          "internalType": "address",
          "name": "account",
          "type": "address"
        },
        {
          "indexed": true,
          "internalType": "address",
          "name": "sender",
          "type": "address"
        }
      ],
      "name": "RoleGranted",
      "type": "event"
    },
    {
      "anonymous": false,
      "inputs": [
        {
          "indexed": true,
          "internalType": "bytes32",
          "name": "role",
          "type": "bytes32"
        },
        {
          "indexed": true,
          "internalType": "address",
          "name": "account",
          "type": "address"
        },
        {
          "indexed": true,
          "internalType": "address",
          "name": "sender",
          "type": "address"
        }
      ],
      "name": "RoleRevoked",
      "type": "event"
    },
    {
      "anonymous": false,
      "inputs": [
        {
          "indexed": true,
          "internalType": "address",
          "name": "from",
          "type": "address"
        },
        {
          "indexed": true,
          "internalType": "address",
          "name": "to",
          "type": "address"
        },
        {
          "indexed": true,
          "internalType": "uint256",
          "name": "tokenId",
          "type": "uint256"
        }
      ],
      "name": "Transfer",
      "type": "event"
    },
    {
      "anonymous": false,
      "inputs": [
        {
          "indexed": false,
          "internalType": "address",
          "name": "account",
          "type": "address"
        }
      ],
      "name": "Unpaused",
      "type": "event"
    },
    {
      "inputs": [],
      "name": "DEFAULT_ADMIN_ROLE",
      "outputs": [
        {
          "internalType": "bytes32",
          "name": "",
          "type": "bytes32"
        }
      ],
      "stateMutability": "view",
      "type": "function"
    },
    {
      "inputs": [],
      "name": "MINTER_ROLE",
      "outputs": [
        {
          "internalType": "bytes32",
          "name": "",
          "type": "bytes32"
        }
      ],
      "stateMutability": "view",
      "type": "function"
    },
    {
      "inputs": [
        {
          "internalType": "address",
          "name": "to",
          "type": "address"
        },
        {
          "internalType": "uint256",
          "name": "tokenId",
          "type": "uint256"
        }
      ],
      "name": "approve",
      "outputs": [],
      "stateMutability": "nonpayable",
      "type": "function"
    },
    {
      "inputs": [
        {
          "internalType": "address",
          "name": "owner",
          "type": "address"
        }
      ],
      "name": "balanceOf",
      "outputs": [
        {
          "internalType": "uint256",
          "name": "",
          "type": "uint256"
        }
      ],
      "stateMutability": "view",
      "type": "function"
    },
    {
      "inputs": [],
      "name": "baseURI",
      "outputs": [
        {
          "internalType": "string",
          "name": "",
          "type": "string"
        }
      ],
      "stateMutability": "view",
      "type": "function"
    },
    {
      "inputs": [
        {
          "internalType": "uint256",
          "name": "tokenId",
          "type": "uint256"
        }
      ],
      "name": "burn",
      "outputs": [],
      "stateMutability": "nonpayable",
      "type": "function"
    },
    {
      "inputs": [
        {
          "internalType": "uint256",
          "name": "tokenId",
          "type": "uint256"
        }
      ],
      "name": "characters",
      "outputs": [
        {
          "internalType": "uint256",
          "name": "quality",
          "type": "uint256"
        },
        {
          "internalType": "uint256",
          "name": "level",
          "type": "uint256"
        },
        {
          "internalType": "uint256",
          "name": "score",
          "type": "uint256"
        }
      ],
      "stateMutability": "view",
      "type": "function"
    },
    {
      "inputs": [],
      "name": "deleteDefaultRoyalty",
      "outputs": [],
      "stateMutability": "nonpayable",
      "type": "function"
    },
    {
      "inputs": [
        {
          "internalType": "uint256",
          "name": "tokenId",
          "type": "uint256"
        }
      ],
      "name": "exists",
      "outputs": [
        {
          "internalType": "bool",
          "name": "",
          "type": "bool"
        }
      ],
      "stateMutability": "view",
      "type": "function"
    },
    {
      "inputs": [
        {
          "internalType": "uint256",
          "name": "tokenId",
          "type": "uint256"
        }
      ],
      "name": "getApproved",
      "outputs": [
        {
          "internalType": "address",
          "name": "",
          "type": "address"
        }
      ],
      "stateMutability": "view",
      "type": "function"
    },
    {
      "inputs": [
        {
          "internalType": "bytes32",
          "name": "role",
          "type": "bytes32"
        }
      ],
      "name": "getRoleAdmin",
      "outputs": [
        {
          "internalType": "bytes32",
          "name": "",
          "type": "bytes32"
        }
      ],
      "stateMutability": "view",
      "type": "function"
    },
    {
      "inputs": [
        {
          "internalType": "bytes32",
          "name": "role",
          "type": "bytes32"
        },
        {
          "internalType": "address",
          "name": "account",
          "type": "address"
        }
      ],
      "name": "grantRole",
      "outputs": [],
      "stateMutability": "nonpayable",
      "type": "function"
    },
    {
      "inputs": [
        {
          "internalType": "bytes32",
          "name": "role",
          "type": "bytes32"
        },
        {
          "internalType": "address",
          "name": "account",
          "type": "address"
        }
      ],
      "name": "hasRole",
      "outputs": [
        {
          "internalType": "bool",
          "name": "",
          "type": "bool"
        }
      ],
      "stateMutability": "view",
      "type": "function"
    },
    {
      "inputs": [
        {
          "internalType": "address",
          "name": "owner",
          "type": "address"
        },
        {
          "internalType": "address",
          "name": "operator",
          "type": "address"
        }
      ],
      "name": "isApprovedForAll",
      "outputs": [
        {
          "internalType": "bool",
          "name": "",
          "type": "bool"
        }
      ],
      "stateMutability": "view",
      "type": "function"
    },
    {
      "inputs": [
        {
          "internalType": "address",
          "name": "to",
          "type": "address"
        },
        {
          "internalType": "uint256",
          "name": "quality",
          "type": "uint256"
        }
      ],
      "name": "mint",
      "outputs": [
        {
          "internalType": "uint256",
          "name": "tokenId",
          "type": "uint256"
        }
      ],
      "stateMutability": "nonpayable",
      "type": "function"
    },
    {
      "inputs": [],
      "name": "name",
      "outputs": [
        {
          "internalType": "string",
          "name": "",
          "type": "string"
        }
      ],
      "stateMutability": "view",
      "type": "function"
    },
    {
      "inputs": [
        {
          "internalType": "address",
          "name": "account",
          "type": "address"
        },
        {
          "internalType": "uint256",
          "name": "startIndex",
          "type": "uint256"
        },
        {
          "internalType": "uint256",
          "name": "endIndex",
          "type": "uint256"
        }
      ],
      "name": "ownedTokens",
      "outputs": [
        {
          "internalType": "uint256[]",
          "name": "",
          "type": "uint256[]"
        }
      ],
      "stateMutability": "view",
      "type": "function"
    },
    {
      "inputs": [
        {
          "internalType": "uint256",
          "name": "tokenId",
          "type": "uint256"
        }
      ],
      "name": "ownerOf",
      "outputs": [
        {
          "internalType": "address",
          "name": "",
          "type": "address"
        }
      ],
      "stateMutability": "view",
      "type": "function"
    },
    {
      "inputs": [],
      "name": "pause",
      "outputs": [],
      "stateMutability": "nonpayable",
      "type": "function"
    },
    {
      "inputs": [],
      "name": "paused",
      "outputs": [
        {
          "internalType": "bool",
          "name": "",
          "type": "bool"
        }
      ],
      "stateMutability": "view",
      "type": "function"
    },
    {
      "inputs": [
        {
          "internalType": "bytes32",
          "name": "role",
          "type": "bytes32"
        },
        {
          "internalType": "address",
          "name": "account",
          "type": "address"
        }
      ],
      "name": "renounceRole",
      "outputs": [],
      "stateMutability": "nonpayable",
      "type": "function"
    },
    {
      "inputs": [
        {
          "internalType": "bytes32",
          "name": "role",
          "type": "bytes32"
        },
        {
          "internalType": "address",
          "name": "account",
          "type": "address"
        }
      ],
      "name": "revokeRole",
      "outputs": [],
      "stateMutability": "nonpayable",
      "type": "function"
    },
    {
      "inputs": [
        {
          "internalType": "uint256",
          "name": "_tokenId",
          "type": "uint256"
        },
        {
          "internalType": "uint256",
          "name": "_salePrice",
          "type": "uint256"
        }
      ],
      "name": "royaltyInfo",
      "outputs": [
        {
          "internalType": "address",
          "name": "",
          "type": "address"
        },
        {
          "internalType": "uint256",
          "name": "",
          "type": "uint256"
        }
      ],
      "stateMutability": "view",
      "type": "function"
    },
    {
      "inputs": [
        {
          "internalType": "address",
          "name": "from",
          "type": "address"
        },
        {
          "internalType": "address",
          "name": "to",
          "type": "address"
        },
        {
          "internalType": "uint256",
          "name": "tokenId",
          "type": "uint256"
        }
      ],
      "name": "safeTransferFrom",
      "outputs": [],
      "stateMutability": "nonpayable",
      "type": "function"
    },
    {
      "inputs": [
        {
          "internalType": "address",
          "name": "from",
          "type": "address"
        },
        {
          "internalType": "address",
          "name": "to",
          "type": "address"
        },
        {
          "internalType": "uint256",
          "name": "tokenId",
          "type": "uint256"
        },
        {
          "internalType": "bytes",
          "name": "_data",
          "type": "bytes"
        }
      ],
      "name": "safeTransferFrom",
      "outputs": [],
      "stateMutability": "nonpayable",
      "type": "function"
    },
    {
      "inputs": [
        {
          "internalType": "address",
          "name": "operator",
          "type": "address"
        },
        {
          "internalType": "bool",
          "name": "approved",
          "type": "bool"
        }
      ],
      "name": "setApprovalForAll",
      "outputs": [],
      "stateMutability": "nonpayable",
      "type": "function"
    },
    {
      "inputs": [
        {
          "internalType": "string",
          "name": "newBaseURI",
          "type": "string"
        }
      ],
      "name": "setBaseURI",
      "outputs": [],
      "stateMutability": "nonpayable",
      "type": "function"
    },
    {
      "inputs": [
        {
          "internalType": "address",
          "name": "recipient",
          "type": "address"
        },
        {
          "internalType": "uint96",
          "name": "fraction",
          "type": "uint96"
        }
      ],
      "name": "setDefaultRoyalty",
      "outputs": [],
      "stateMutability": "nonpayable",
      "type": "function"
    },
    {
      "inputs": [
        {
          "internalType": "uint256",
          "name": "tokenId",
          "type": "uint256"
        },
        {
          "internalType": "address",
          "name": "recipient",
          "type": "address"
        },
        {
          "internalType": "uint96",
          "name": "fraction",
          "type": "uint96"
        }
      ],
      "name": "setTokenRoyalty",
      "outputs": [],
      "stateMutability": "nonpayable",
      "type": "function"
    },
    {
      "inputs": [
        {
          "internalType": "bytes4",
          "name": "interfaceId",
          "type": "bytes4"
        }
      ],
      "name": "supportsInterface",
      "outputs": [
        {
          "internalType": "bool",
          "name": "",
          "type": "bool"
        }
      ],
      "stateMutability": "view",
      "type": "function"
    },
    {
      "inputs": [],
      "name": "symbol",
      "outputs": [
        {
          "internalType": "string",
          "name": "",
          "type": "string"
        }
      ],
      "stateMutability": "view",
      "type": "function"
    },
    {
      "inputs": [
        {
          "internalType": "uint256",
          "name": "index",
          "type": "uint256"
        }
      ],
      "name": "tokenByIndex",
      "outputs": [
        {
          "internalType": "uint256",
          "name": "",
          "type": "uint256"
        }
      ],
      "stateMutability": "view",
      "type": "function"
    },
    {
      "inputs": [
        {
          "internalType": "address",
          "name": "owner",
          "type": "address"
        },
        {
          "internalType": "uint256",
          "name": "index",
          "type": "uint256"
        }
      ],
      "name": "tokenOfOwnerByIndex",
      "outputs": [
        {
          "internalType": "uint256",
          "name": "",
          "type": "uint256"
        }
      ],
      "stateMutability": "view",
      "type": "function"
    },
    {
      "inputs": [
        {
          "internalType": "uint256",
          "name": "tokenId",
          "type": "uint256"
        }
      ],
      "name": "tokenURI",
      "outputs": [
        {
          "internalType": "string",
          "name": "",
          "type": "string"
        }
      ],
      "stateMutability": "view",
      "type": "function"
    },
    {
      "inputs": [],
      "name": "totalSupply",
      "outputs": [
        {
          "internalType": "uint256",
          "name": "",
          "type": "uint256"
        }
      ],
      "stateMutability": "view",
      "type": "function"
    },
    {
      "inputs": [
        {
          "internalType": "address",
          "name": "from",
          "type": "address"
        },
        {
          "internalType": "address",
          "name": "to",
          "type": "address"
        },
        {
          "internalType": "uint256",
          "name": "tokenId",
          "type": "uint256"
        }
      ],
      "name": "transferFrom",
      "outputs": [],
      "stateMutability": "nonpayable",
      "type": "function"
    },
    {
      "inputs": [],
      "name": "unpause",
      "outputs": [],
      "stateMutability": "nonpayable",
      "type": "function"
    }
  ],
  "bytecode": "0x60806040523480156200001157600080fd5b50604080518082018252601081526f4d5954484943414c20414e494d414c5360801b602080830191909152825180840190935260028352614d4160f01b908301526003805460ff191690559060046200006b838262000208565b5060056200007a828262000208565b506200008c91506000905033620000be565b620000b87f9f2df0fed2c77648de5860a4cc508cd0818c85b8b8a1ab4ceeef8d981c8956a633620000be565b620002d4565b60008281526002602090815260408083206001600160a01b038516845290915290205460ff166200015f5760008281526002602090815260408083206001600160a01b03851684529091529020805460ff191660011790556200011e3390565b6001600160a01b0316816001600160a01b0316837f2f8788117e7eff1d82e926ec794901d17c78024a50270940304540a733656f0d60405160405180910390a45b5050565b634e487b7160e01b600052604160045260246000fd5b600181811c908216806200018e57607f821691505b602082108103620001af57634e487b7160e01b600052602260045260246000fd5b50919050565b601f8211156200020357600081815260208120601f850160051c81016020861015620001de5750805b601f850160051c820191505b81811015620001ff57828155600101620001ea565b5050505b505050565b81516001600160401b0381111562000224576200022462000163565b6200023c8162000235845462000179565b84620001b5565b602080601f8311600181146200027457600084156200025b5750858301515b600019600386901b1c1916600185901b178555620001ff565b600085815260208120601f198616915b82811015620002a55788860151825594840194600190910190840162000284565b5085821015620002c45787850151600019600388901b60f8161c191681555b5050505050600190811b01905550565b612b6780620002e46000396000f3fe608060405234801561001057600080fd5b50600436106102275760003560e01c80634f558e791161013057806391d14854116100b8578063b88d4fde1161007c578063b88d4fde146104c9578063c87b56dd146104dc578063d5391393146104ef578063d547741f14610516578063e985e9c51461052957600080fd5b806391d148541461048b57806395d89b411461049e578063a217fddf146104a6578063a22cb465146104ae578063aa1b103f146104c157600080fd5b80635c975abb116100ff5780635c975abb1461044a5780636352211e146104555780636c0360eb1461046857806370a08231146104705780638456cb591461048357600080fd5b80634f558e79146103fe5780634f6ccce71461041157806355f804b3146104245780635944c7531461043757600080fd5b80632f2ff15d116101b357806340c10f191161018257806340c10f191461037757806342842e0e1461038a57806342966c681461039d5780634810bc59146103b057806349a0a50e146103de57600080fd5b80632f2ff15d146103365780632f745c591461034957806336568abe1461035c5780633f4ba83a1461036f57600080fd5b8063095ea7b3116101fa578063095ea7b3146102a957806318160ddd146102bc57806323b872dd146102ce578063248a9ca3146102e15780632a55205a1461030457600080fd5b806301ffc9a71461022c57806304634d8d1461025457806306fdde0314610269578063081812fc1461027e575b600080fd5b61023f61023a3660046122b4565b610565565b60405190151581526020015b60405180910390f35b610267610262366004612304565b610576565b005b610271610591565b60405161024b9190612387565b61029161028c36600461239a565b610623565b6040516001600160a01b03909116815260200161024b565b6102676102b73660046123b3565b6106b0565b600c545b60405190815260200161024b565b6102676102dc3660046123dd565b6107c0565b6102c06102ef36600461239a565b60009081526002602052604090206001015490565b610317610312366004612419565b6107f2565b604080516001600160a01b03909316835260208301919091520161024b565b61026761034436600461243b565b61089e565b6102c06103573660046123b3565b6108c4565b61026761036a36600461243b565b61095a565b6102676109d8565b6102c06103853660046123b3565b6109ef565b6102676103983660046123dd565b610afc565b6102676103ab36600461239a565b610b17565b6103c36103be36600461239a565b610b75565b6040805193845260208401929092529082015260600161024b565b6103f16103ec36600461245e565b610c04565b60405161024b9190612491565b61023f61040c36600461239a565b610cf5565b6102c061041f36600461239a565b610d00565b610267610432366004612561565b610d93565b6102676104453660046125aa565b610e7c565b60035460ff1661023f565b61029161046336600461239a565b610e99565b610271610f10565b6102c061047e3660046125e6565b610f1f565b610267610fa6565b61023f61049936600461243b565b610fba565b610271610fe5565b6102c0600081565b6102676104bc366004612601565b610ff4565b610267610fff565b6102676104d736600461263d565b611014565b6102716104ea36600461239a565b611046565b6102c07f9f2df0fed2c77648de5860a4cc508cd0818c85b8b8a1ab4ceeef8d981c8956a681565b61026761052436600461243b565b611111565b61023f6105373660046126b9565b6001600160a01b03918216600090815260096020908152604080832093909416825291909152205460ff1690565b600061057082611137565b92915050565b60006105828133611142565b61058c83836111a6565b505050565b6060600480546105a0906126e3565b80601f01602080910402602001604051908101604052809291908181526020018280546105cc906126e3565b80156106195780601f106105ee57610100808354040283529160200191610619565b820191906000526020600020905b8154815290600101906020018083116105fc57829003601f168201915b5050505050905090565b600061062e82611260565b6106945760405162461bcd60e51b815260206004820152602c60248201527f4552433732313a20617070726f76656420717565727920666f72206e6f6e657860448201526b34b9ba32b73a103a37b5b2b760a11b60648201526084015b60405180910390fd5b506000908152600860205260409020546001600160a01b031690565b60006106bb82610e99565b9050806001600160a01b0316836001600160a01b0316036107285760405162461bcd60e51b815260206004820152602160248201527f4552433732313a20617070726f76616c20746f2063757272656e74206f776e656044820152603960f91b606482015260840161068b565b336001600160a01b038216148061074457506107448133610537565b6107b65760405162461bcd60e51b815260206004820152603860248201527f4552433732313a20617070726f76652063616c6c6572206973206e6f74206f7760448201527f6e6572206e6f7220617070726f76656420666f7220616c6c0000000000000000606482015260840161068b565b61058c838361127d565b6107cb335b826112eb565b6107e75760405162461bcd60e51b815260040161068b9061271d565b61058c8383836113d5565b60008281526001602090815260408083208151808301909252546001600160a01b038116808352600160a01b9091046001600160601b03169282019290925282916108675750604080518082019091526000546001600160a01b0381168252600160a01b90046001600160601b031660208201525b602081015160009061271090610886906001600160601b031687612784565b61089091906127b1565b915196919550909350505050565b6000828152600260205260409020600101546108ba8133611142565b61058c838361157c565b60006108cf83610f1f565b82106109315760405162461bcd60e51b815260206004820152602b60248201527f455243373231456e756d657261626c653a206f776e657220696e646578206f7560448201526a74206f6620626f756e647360a81b606482015260840161068b565b506001600160a01b03919091166000908152600a60209081526040808320938352929052205490565b6001600160a01b03811633146109ca5760405162461bcd60e51b815260206004820152602f60248201527f416363657373436f6e74726f6c3a2063616e206f6e6c792072656e6f756e636560448201526e103937b632b9903337b91039b2b63360891b606482015260840161068b565b6109d48282611602565b5050565b60006109e48133611142565b6109ec611669565b50565b60007f9f2df0fed2c77648de5860a4cc508cd0818c85b8b8a1ab4ceeef8d981c8956a6610a1c8133611142565b6001600160a01b038416610a725760405162461bcd60e51b815260206004820152601860248201527f4d696e7420746f20746865207a65726f20616464726573730000000000000000604482015260640161068b565b610a80600f80546001019055565b600f546000818152601060205260409020848155909250610aa185846116fc565b600281015460408051600081526020810187905280820192909252516001600160a01b0387169185917fb458411fe9a80409ed5a4d6c5e07678352095ebf89e8a611de08a8862c85e9039181900360600190a3505092915050565b61058c83838360405180602001604052806000815250611014565b610b20336107c5565b610b6c5760405162461bcd60e51b815260206004820181905260248201527f43616c6c6572206973206e6f74206f776e6572206e6f7220617070726f766564604482015260640161068b565b6109ec81611716565b6000806000610b8384611260565b610bc65760405162461bcd60e51b8152602060048201526014602482015273151bdad95b88191bd95cc81b9bdd08195e1a5cdd60621b604482015260640161068b565b505050600081815260106020908152604091829020825160608101845281548082526001830154938201849052600290920154930183905293909250565b60608183108015610c1d5750610c1984610f1f565b8211155b610c595760405162461bcd60e51b815260206004820152600d60248201526c092dcecc2d8d2c840d2dcc8caf609b1b604482015260640161068b565b6000610c6584846127c5565b67ffffffffffffffff811115610c7d57610c7d6124d5565b604051908082528060200260200182016040528015610ca6578160200160208202803683370190505b509050835b83811015610cec57610cbd86826108c4565b828281518110610ccf57610ccf6127d8565b602090810291909101015280610ce4816127ee565b915050610cab565b50949350505050565b600061057082611260565b6000610d0b600c5490565b8210610d6e5760405162461bcd60e51b815260206004820152602c60248201527f455243373231456e756d657261626c653a20676c6f62616c20696e646578206f60448201526b7574206f6620626f756e647360a01b606482015260840161068b565b600c8281548110610d8157610d816127d8565b90600052602060002001549050919050565b6000610d9f8133611142565b6000600e8054610dae906126e3565b80601f0160208091040260200160405190810160405280929190818152602001828054610dda906126e3565b8015610e275780601f10610dfc57610100808354040283529160200191610e27565b820191906000526020600020905b815481529060010190602001808311610e0a57829003601f168201915b5050505050905082600e9081610e3d9190612855565b507f309b29ded109b9e28fb9885757b3e0096eb75c51d23aa4635d68bcd569f6adc18184604051610e6f929190612915565b60405180910390a1505050565b6000610e888133611142565b610e9384848461171f565b50505050565b6000818152600660205260408120546001600160a01b0316806105705760405162461bcd60e51b815260206004820152602960248201527f4552433732313a206f776e657220717565727920666f72206e6f6e657869737460448201526832b73a103a37b5b2b760b91b606482015260840161068b565b6060610f1a6117ea565b905090565b60006001600160a01b038216610f8a5760405162461bcd60e51b815260206004820152602a60248201527f4552433732313a2062616c616e636520717565727920666f7220746865207a65604482015269726f206164647265737360b01b606482015260840161068b565b506001600160a01b031660009081526007602052604090205490565b6000610fb28133611142565b6109ec6117f9565b60009182526002602090815260408084206001600160a01b0393909316845291905290205460ff1690565b6060600580546105a0906126e3565b6109d4338383611874565b600061100b8133611142565b6109ec60008055565b61101e33836112eb565b61103a5760405162461bcd60e51b815260040161068b9061271d565b610e9384848484611942565b606061105182611260565b6110b55760405162461bcd60e51b815260206004820152602f60248201527f4552433732314d657461646174613a2055524920717565727920666f72206e6f60448201526e3732bc34b9ba32b73a103a37b5b2b760891b606482015260840161068b565b60006110bf6117ea565b905060008151116110df576040518060200160405280600081525061110a565b806110e984611975565b6040516020016110fa929190612943565b6040516020818303038152906040525b9392505050565b60008281526002602052604090206001015461112d8133611142565b61058c8383611602565b600061057082611a76565b61114c8282610fba565b6109d457611164816001600160a01b03166014611a9b565b61116f836020611a9b565b604051602001611180929190612972565b60408051601f198184030181529082905262461bcd60e51b825261068b91600401612387565b6127106001600160601b03821611156111d15760405162461bcd60e51b815260040161068b906129e7565b6001600160a01b0382166112275760405162461bcd60e51b815260206004820152601960248201527f455243323938313a20696e76616c696420726563656976657200000000000000604482015260640161068b565b604080518082019091526001600160a01b039092168083526001600160601b039091166020909201829052600160a01b90910217600055565b6000908152600660205260409020546001600160a01b0316151590565b600081815260086020526040902080546001600160a01b0319166001600160a01b03841690811790915581906112b282610e99565b6001600160a01b03167f8c5be1e5ebec7d5bd14f71427d1e84f3dd0314c0f7b2291e5b200ac8c7c3b92560405160405180910390a45050565b60006112f682611260565b6113575760405162461bcd60e51b815260206004820152602c60248201527f4552433732313a206f70657261746f7220717565727920666f72206e6f6e657860448201526b34b9ba32b73a103a37b5b2b760a11b606482015260840161068b565b600061136283610e99565b9050806001600160a01b0316846001600160a01b0316148061139d5750836001600160a01b031661139284610623565b6001600160a01b0316145b806113cd57506001600160a01b0380821660009081526009602090815260408083209388168352929052205460ff165b949350505050565b826001600160a01b03166113e882610e99565b6001600160a01b03161461144c5760405162461bcd60e51b815260206004820152602560248201527f4552433732313a207472616e736665722066726f6d20696e636f72726563742060448201526437bbb732b960d91b606482015260840161068b565b6001600160a01b0382166114ae5760405162461bcd60e51b8152602060048201526024808201527f4552433732313a207472616e7366657220746f20746865207a65726f206164646044820152637265737360e01b606482015260840161068b565b6114b9838383611c37565b6114c460008261127d565b6001600160a01b03831660009081526007602052604081208054600192906114ed9084906127c5565b90915550506001600160a01b038216600090815260076020526040812080546001929061151b908490612a31565b909155505060008181526006602052604080822080546001600160a01b0319166001600160a01b0386811691821790925591518493918716917fddf252ad1be2c89b69c2b068fc378daa952ba7f163c4a11628f55a4df523b3ef91a4505050565b6115868282610fba565b6109d45760008281526002602090815260408083206001600160a01b03851684529091529020805460ff191660011790556115be3390565b6001600160a01b0316816001600160a01b0316837f2f8788117e7eff1d82e926ec794901d17c78024a50270940304540a733656f0d60405160405180910390a45050565b61160c8282610fba565b156109d45760008281526002602090815260408083206001600160a01b0385168085529252808320805460ff1916905551339285917ff6391f5c32d9c69d2a47ea670b442974b53935d1edc7fd64eb21e047a839171b9190a45050565b60035460ff166116b25760405162461bcd60e51b815260206004820152601460248201527314185d5cd8589b194e881b9bdd081c185d5cd95960621b604482015260640161068b565b6003805460ff191690557f5db9ee0a495bf2e6ff9c91a7834c1ba4fdd244a5e8aa4e537bd38aeae4b073aa335b6040516001600160a01b03909116815260200160405180910390a1565b6109d4828260405180602001604052806000815250611c88565b6109ec81611cbb565b6127106001600160601b038216111561174a5760405162461bcd60e51b815260040161068b906129e7565b6001600160a01b0382166117a05760405162461bcd60e51b815260206004820152601b60248201527f455243323938313a20496e76616c696420706172616d65746572730000000000604482015260640161068b565b6040805180820182526001600160a01b0393841681526001600160601b0392831660208083019182526000968752600190529190942093519051909116600160a01b029116179055565b6060600e80546105a0906126e3565b60035460ff161561183f5760405162461bcd60e51b815260206004820152601060248201526f14185d5cd8589b194e881c185d5cd95960821b604482015260640161068b565b6003805460ff191660011790557f62e78cea01bee320cd4e420270b5ea74000d11b0c9f74754ebdbfc544b05a2586116df3390565b816001600160a01b0316836001600160a01b0316036118d55760405162461bcd60e51b815260206004820152601960248201527f4552433732313a20617070726f766520746f2063616c6c657200000000000000604482015260640161068b565b6001600160a01b03838116600081815260096020908152604080832094871680845294825291829020805460ff191686151590811790915591519182527f17307eab39ab6107e8899845ad3d59bd9653f200f220920489ca2b5937696c31910160405180910390a3505050565b61194d8484846113d5565b61195984848484611cd5565b610e935760405162461bcd60e51b815260040161068b90612a44565b60608160000361199c5750506040805180820190915260018152600360fc1b602082015290565b8160005b81156119c657806119b0816127ee565b91506119bf9050600a836127b1565b91506119a0565b60008167ffffffffffffffff8111156119e1576119e16124d5565b6040519080825280601f01601f191660200182016040528015611a0b576020820181803683370190505b5090505b84156113cd57611a206001836127c5565b9150611a2d600a86612a96565b611a38906030612a31565b60f81b818381518110611a4d57611a4d6127d8565b60200101906001600160f81b031916908160001a905350611a6f600a866127b1565b9450611a0f565b60006001600160e01b0319821663780e9d6360e01b1480610570575061057082611dd6565b60606000611aaa836002612784565b611ab5906002612a31565b67ffffffffffffffff811115611acd57611acd6124d5565b6040519080825280601f01601f191660200182016040528015611af7576020820181803683370190505b509050600360fc1b81600081518110611b1257611b126127d8565b60200101906001600160f81b031916908160001a905350600f60fb1b81600181518110611b4157611b416127d8565b60200101906001600160f81b031916908160001a9053506000611b65846002612784565b611b70906001612a31565b90505b6001811115611be8576f181899199a1a9b1b9c1cb0b131b232b360811b85600f1660108110611ba457611ba46127d8565b1a60f81b828281518110611bba57611bba6127d8565b60200101906001600160f81b031916908160001a90535060049490941c93611be181612aaa565b9050611b73565b50831561110a5760405162461bcd60e51b815260206004820181905260248201527f537472696e67733a20686578206c656e67746820696e73756666696369656e74604482015260640161068b565b60035460ff1615611c7d5760405162461bcd60e51b815260206004820152601060248201526f14185d5cd8589b194e881c185d5cd95960821b604482015260640161068b565b61058c838383611e16565b611c928383611ece565b611c9f6000848484611cd5565b61058c5760405162461bcd60e51b815260040161068b90612a44565b611cc48161200d565b600090815260016020526040812055565b60006001600160a01b0384163b15611dcb57604051630a85bd0160e11b81526001600160a01b0385169063150b7a0290611d19903390899088908890600401612ac1565b6020604051808303816000875af1925050508015611d54575060408051601f3d908101601f19168201909252611d5191810190612afe565b60015b611db1573d808015611d82576040519150601f19603f3d011682016040523d82523d6000602084013e611d87565b606091505b508051600003611da95760405162461bcd60e51b815260040161068b90612a44565b805181602001fd5b6001600160e01b031916630a85bd0160e11b1490506113cd565b506001949350505050565b60006001600160e01b031982166380ac58cd60e01b1480611e0757506001600160e01b03198216635b5e139f60e01b145b806105705750610570826120b4565b6001600160a01b038316611e7157611e6c81600c80546000838152600d60205260408120829055600182018355919091527fdf6966c971051c3d54ec59162606531493a51404a002842f56009d7e5cf4a8c70155565b611e94565b816001600160a01b0316836001600160a01b031614611e9457611e9483826120d9565b6001600160a01b038216611eab5761058c81612176565b826001600160a01b0316826001600160a01b03161461058c5761058c8282612225565b6001600160a01b038216611f245760405162461bcd60e51b815260206004820181905260248201527f4552433732313a206d696e7420746f20746865207a65726f2061646472657373604482015260640161068b565b611f2d81611260565b15611f7a5760405162461bcd60e51b815260206004820152601c60248201527f4552433732313a20746f6b656e20616c7265616479206d696e74656400000000604482015260640161068b565b611f8660008383611c37565b6001600160a01b0382166000908152600760205260408120805460019290611faf908490612a31565b909155505060008181526006602052604080822080546001600160a01b0319166001600160a01b03861690811790915590518392907fddf252ad1be2c89b69c2b068fc378daa952ba7f163c4a11628f55a4df523b3ef908290a45050565b600061201882610e99565b905061202681600084611c37565b61203160008361127d565b6001600160a01b038116600090815260076020526040812080546001929061205a9084906127c5565b909155505060008281526006602052604080822080546001600160a01b0319169055518391906001600160a01b038416907fddf252ad1be2c89b69c2b068fc378daa952ba7f163c4a11628f55a4df523b3ef908390a45050565b60006001600160e01b03198216637965db0b60e01b1480610570575061057082612269565b600060016120e684610f1f565b6120f091906127c5565b6000838152600b6020526040902054909150808214612143576001600160a01b0384166000908152600a602090815260408083208584528252808320548484528184208190558352600b90915290208190555b506000918252600b602090815260408084208490556001600160a01b039094168352600a81528383209183525290812055565b600c54600090612188906001906127c5565b6000838152600d6020526040812054600c80549394509092849081106121b0576121b06127d8565b9060005260206000200154905080600c83815481106121d1576121d16127d8565b6000918252602080832090910192909255828152600d9091526040808220849055858252812055600c80548061220957612209612b1b565b6001900381819060005260206000200160009055905550505050565b600061223083610f1f565b6001600160a01b039093166000908152600a602090815260408083208684528252808320859055938252600b9052919091209190915550565b60006001600160e01b0319821663152a902d60e11b148061057057506301ffc9a760e01b6001600160e01b0319831614610570565b6001600160e01b0319811681146109ec57600080fd5b6000602082840312156122c657600080fd5b813561110a8161229e565b80356001600160a01b03811681146122e857600080fd5b919050565b80356001600160601b03811681146122e857600080fd5b6000806040838503121561231757600080fd5b612320836122d1565b915061232e602084016122ed565b90509250929050565b60005b8381101561235257818101518382015260200161233a565b50506000910152565b60008151808452612373816020860160208601612337565b601f01601f19169290920160200192915050565b60208152600061110a602083018461235b565b6000602082840312156123ac57600080fd5b5035919050565b600080604083850312156123c657600080fd5b6123cf836122d1565b946020939093013593505050565b6000806000606084860312156123f257600080fd5b6123fb846122d1565b9250612409602085016122d1565b9150604084013590509250925092565b6000806040838503121561242c57600080fd5b50508035926020909101359150565b6000806040838503121561244e57600080fd5b8235915061232e602084016122d1565b60008060006060848603121561247357600080fd5b61247c846122d1565b95602085013595506040909401359392505050565b6020808252825182820181905260009190848201906040850190845b818110156124c9578351835292840192918401916001016124ad565b50909695505050505050565b634e487b7160e01b600052604160045260246000fd5b600067ffffffffffffffff80841115612506576125066124d5565b604051601f8501601f19908116603f0116810190828211818310171561252e5761252e6124d5565b8160405280935085815286868601111561254757600080fd5b858560208301376000602087830101525050509392505050565b60006020828403121561257357600080fd5b813567ffffffffffffffff81111561258a57600080fd5b8201601f8101841361259b57600080fd5b6113cd848235602084016124eb565b6000806000606084860312156125bf57600080fd5b833592506125cf602085016122d1565b91506125dd604085016122ed565b90509250925092565b6000602082840312156125f857600080fd5b61110a826122d1565b6000806040838503121561261457600080fd5b61261d836122d1565b91506020830135801515811461263257600080fd5b809150509250929050565b6000806000806080858703121561265357600080fd5b61265c856122d1565b935061266a602086016122d1565b925060408501359150606085013567ffffffffffffffff81111561268d57600080fd5b8501601f8101871361269e57600080fd5b6126ad878235602084016124eb565b91505092959194509250565b600080604083850312156126cc57600080fd5b6126d5836122d1565b915061232e602084016122d1565b600181811c908216806126f757607f821691505b60208210810361271757634e487b7160e01b600052602260045260246000fd5b50919050565b60208082526031908201527f4552433732313a207472616e736665722063616c6c6572206973206e6f74206f6040820152701ddb995c881b9bdc88185c1c1c9bdd9959607a1b606082015260800190565b634e487b7160e01b600052601160045260246000fd5b80820281158282048414176105705761057061276e565b634e487b7160e01b600052601260045260246000fd5b6000826127c0576127c061279b565b500490565b818103818111156105705761057061276e565b634e487b7160e01b600052603260045260246000fd5b6000600182016128005761280061276e565b5060010190565b601f82111561058c57600081815260208120601f850160051c8101602086101561282e5750805b601f850160051c820191505b8181101561284d5782815560010161283a565b505050505050565b815167ffffffffffffffff81111561286f5761286f6124d5565b6128838161287d84546126e3565b84612807565b602080601f8311600181146128b857600084156128a05750858301515b600019600386901b1c1916600185901b17855561284d565b600085815260208120601f198616915b828110156128e7578886015182559484019460019091019084016128c8565b50858210156129055787850151600019600388901b60f8161c191681555b5050505050600190811b01905550565b604081526000612928604083018561235b565b828103602084015261293a818561235b565b95945050505050565b60008351612955818460208801612337565b835190830190612969818360208801612337565b01949350505050565b7f416363657373436f6e74726f6c3a206163636f756e74200000000000000000008152600083516129aa816017850160208801612337565b7001034b99036b4b9b9b4b733903937b6329607d1b60179184019182015283516129db816028840160208801612337565b01602801949350505050565b6020808252602a908201527f455243323938313a20726f79616c7479206665652077696c6c206578636565646040820152692073616c65507269636560b01b606082015260800190565b808201808211156105705761057061276e565b60208082526032908201527f4552433732313a207472616e7366657220746f206e6f6e20455243373231526560408201527131b2b4bb32b91034b6b83632b6b2b73a32b960711b606082015260800190565b600082612aa557612aa561279b565b500690565b600081612ab957612ab961276e565b506000190190565b6001600160a01b0385811682528416602082015260408101839052608060608201819052600090612af49083018461235b565b9695505050505050565b600060208284031215612b1057600080fd5b815161110a8161229e565b634e487b7160e01b600052603160045260246000fdfea2646970667358221220fdf4cc5e35880421431b774b0b3873853e0b9190a754261fcf5c08b9e2aa80c264736f6c63430008110033",
  "linkReferences": {},
  "deployedLinkReferences": {}
}