{
  "_format": "hh-sol-artifact-1",
  "contractName": "Box",
  "sourceName": "contracts/Box.sol",
  "abi": [
    {
      "inputs": [
        {
          "internalType": "address",
          "name": "cards_",
          "type": "address"
        },
        {
          "internalType": "address",
          "name": "props_",
          "type": "address"
        },
        {
          "internalType": "address",
          "name": "store_",
          "type": "address"
        }
      ],
      "stateMutability": "nonpayable",
      "type": "constructor"
    },
    {
      "anonymous": false,
      "inputs": [
        {
          "indexed": false,
          "internalType": "address",
          "name": "previousValue",
          "type": "address"
        },
        {
          "indexed": false,
          "internalType": "address",
          "name": "newValue",
          "type": "address"
        }
      ],
      "name": "CardsUpdated",
      "type": "event"
    },
    {
      "anonymous": false,
      "inputs": [
        {
          "indexed": true,
          "internalType": "address",
          "name": "account",
          "type": "address"
        },
        {
          "indexed": false,
          "internalType": "uint256",
          "name": "tokenId",
          "type": "uint256"
        }
      ],
      "name": "Opened",
      "type": "event"
    },
    {
      "anonymous": false,
      "inputs": [
        {
          "indexed": true,
          "internalType": "address",
          "name": "previousOwner",
          "type": "address"
        },
        {
          "indexed": true,
          "internalType": "address",
          "name": "newOwner",
          "type": "address"
        }
      ],
      "name": "OwnershipTransferred",
      "type": "event"
    },
    {
      "anonymous": false,
      "inputs": [
        {
          "indexed": false,
          "internalType": "address",
          "name": "account",
          "type": "address"
        }
      ],
      "name": "Paused",
      "type": "event"
    },
    {
      "anonymous": false,
      "inputs": [
        {
          "indexed": false,
          "internalType": "uint256[]",
          "name": "previousValues",
          "type": "uint256[]"
        },
        {
          "indexed": false,
          "internalType": "uint256[]",
          "name": "newValues",
          "type": "uint256[]"
        }
      ],
      "name": "ProbabilitiesUpdated",
      "type": "event"
    },
    {
      "anonymous": false,
      "inputs": [
        {
          "indexed": false,
          "internalType": "address",
          "name": "previousValue",
          "type": "address"
        },
        {
          "indexed": false,
          "internalType": "address",
          "name": "newValue",
          "type": "address"
        }
      ],
      "name": "PropsUpdated",
      "type": "event"
    },
    {
      "anonymous": false,
      "inputs": [
        {
          "indexed": false,
          "internalType": "address",
          "name": "previousValue",
          "type": "address"
        },
        {
          "indexed": false,
          "internalType": "address",
          "name": "newValue",
          "type": "address"
        }
      ],
      "name": "StoreUpdated",
      "type": "event"
    },
    {
      "anonymous": false,
      "inputs": [
        {
          "indexed": false,
          "internalType": "address",
          "name": "account",
          "type": "address"
        }
      ],
      "name": "Unpaused",
      "type": "event"
    },
    {
      "inputs": [
        {
          "internalType": "uint256",
          "name": "number",
          "type": "uint256"
        }
      ],
      "name": "_random",
      "outputs": [
        {
          "internalType": "uint256",
          "name": "",
          "type": "uint256"
        }
      ],
      "stateMutability": "view",
      "type": "function"
    },
    {
      "inputs": [],
      "name": "cards",
      "outputs": [
        {
          "internalType": "contract ICards",
          "name": "",
          "type": "address"
        }
      ],
      "stateMutability": "view",
      "type": "function"
    },
    {
      "inputs": [
        {
          "internalType": "uint256",
          "name": "",
          "type": "uint256"
        }
      ],
      "name": "looksAmount",
      "outputs": [
        {
          "internalType": "uint256",
          "name": "",
          "type": "uint256"
        }
      ],
      "stateMutability": "view",
      "type": "function"
    },
    {
      "inputs": [
        {
          "internalType": "address",
          "name": "",
          "type": "address"
        },
        {
          "internalType": "address",
          "name": "",
          "type": "address"
        },
        {
          "internalType": "uint256",
          "name": "",
          "type": "uint256"
        },
        {
          "internalType": "bytes",
          "name": "",
          "type": "bytes"
        }
      ],
      "name": "onERC721Received",
      "outputs": [
        {
          "internalType": "bytes4",
          "name": "",
          "type": "bytes4"
        }
      ],
      "stateMutability": "nonpayable",
      "type": "function"
    },
    {
      "inputs": [],
      "name": "open",
      "outputs": [],
      "stateMutability": "nonpayable",
      "type": "function"
    },
    {
      "inputs": [],
      "name": "owner",
      "outputs": [
        {
          "internalType": "address",
          "name": "",
          "type": "address"
        }
      ],
      "stateMutability": "view",
      "type": "function"
    },
    {
      "inputs": [],
      "name": "pause",
      "outputs": [],
      "stateMutability": "nonpayable",
      "type": "function"
    },
    {
      "inputs": [],
      "name": "paused",
      "outputs": [
        {
          "internalType": "bool",
          "name": "",
          "type": "bool"
        }
      ],
      "stateMutability": "view",
      "type": "function"
    },
    {
      "inputs": [],
      "name": "props",
      "outputs": [
        {
          "internalType": "contract IProps",
          "name": "",
          "type": "address"
        }
      ],
      "stateMutability": "view",
      "type": "function"
    },
    {
      "inputs": [],
      "name": "renounceOwnership",
      "outputs": [],
      "stateMutability": "nonpayable",
      "type": "function"
    },
    {
      "inputs": [
        {
          "internalType": "address",
          "name": "value",
          "type": "address"
        }
      ],
      "name": "setCards",
      "outputs": [],
      "stateMutability": "nonpayable",
      "type": "function"
    },
    {
      "inputs": [
        {
          "internalType": "address",
          "name": "value",
          "type": "address"
        }
      ],
      "name": "setProps",
      "outputs": [],
      "stateMutability": "nonpayable",
      "type": "function"
    },
    {
      "inputs": [
        {
          "internalType": "address",
          "name": "value",
          "type": "address"
        }
      ],
      "name": "setStore",
      "outputs": [],
      "stateMutability": "nonpayable",
      "type": "function"
    },
    {
      "inputs": [],
      "name": "store",
      "outputs": [
        {
          "internalType": "contract IStore",
          "name": "",
          "type": "address"
        }
      ],
      "stateMutability": "view",
      "type": "function"
    },
    {
      "inputs": [
        {
          "internalType": "address",
          "name": "newOwner",
          "type": "address"
        }
      ],
      "name": "transferOwnership",
      "outputs": [],
      "stateMutability": "nonpayable",
      "type": "function"
    },
    {
      "inputs": [],
      "name": "unpause",
      "outputs": [],
      "stateMutability": "nonpayable",
      "type": "function"
    },
    {
      "inputs": [
        {
          "internalType": "uint256[]",
          "name": "values",
          "type": "uint256[]"
        }
      ],
      "name": "updateProbabilities",
      "outputs": [],
      "stateMutability": "nonpayable",
      "type": "function"
    }
  ],
  "bytecode": "0x60806040523480156200001157600080fd5b506040516200117938038062001179833981016040819052620000349162000197565b6200003f33620000be565b60018055600280546001600160a01b03808616610100026001600160a81b0319909216919091178255600380548583166001600160a01b0319918216179091556004805492851692909116919091179055604080518082019091526062815260208101829052620000b491600591906200010e565b50505050620001e1565b600080546001600160a01b038381166001600160a01b0319831681178455604051919092169283917f8be0079c531659141344cd1fd0a4f28419497f9722a3daafe3b4186f6b6457e09190a35050565b82805482825590600052602060002090810192821562000151579160200282015b8281111562000151578251829060ff169055916020019190600101906200012f565b506200015f92915062000163565b5090565b5b808211156200015f576000815560010162000164565b80516001600160a01b03811681146200019257600080fd5b919050565b600080600060608486031215620001ad57600080fd5b620001b8846200017a565b9250620001c8602085016200017a565b9150620001d8604085016200017a565b90509250925092565b610f8880620001f16000396000f3fe608060405234801561001057600080fd5b506004361061010b5760003560e01c80638456cb59116100a25780639dcbcdf4116100715780639dcbcdf41461022a578063bdcafc781461023d578063e350e5c91461025d578063f2fde38b14610270578063fcfff16f1461028357600080fd5b80638456cb59146101eb5780638da5cb5b146101f35780639499a6cc14610204578063975057e71461021757600080fd5b80633f4ba83a116100de5780633f4ba83a146101ad57806358a4903f146101b55780635c975abb146101cd578063715018a6146101e357600080fd5b8063046d30c714610110578063087cbd4014610136578063150b7a021461014b5780632060a15014610182575b600080fd5b61012361011e366004610be7565b61028b565b6040519081526020015b60405180910390f35b610149610144366004610c1c565b6102ef565b005b610169610159366004610c85565b630a85bd0160e11b949350505050565b6040516001600160e01b0319909116815260200161012d565b600354610195906001600160a01b031681565b6040516001600160a01b03909116815260200161012d565b6101496103ae565b6002546101959061010090046001600160a01b031681565b60025460ff16604051901515815260200161012d565b6101496103e2565b610149610416565b6000546001600160a01b0316610195565b610149610212366004610c1c565b610448565b600454610195906001600160a01b031681565b610149610238366004610d45565b6104f2565b61012361024b366004610be7565b60066020526000908152604090205481565b61014961026b366004610c1c565b610618565b61014961027e366004610c1c565b6106cc565b610149610767565b6000814244336040516020016102c693929190928352602083019190915260601b6bffffffffffffffffffffffff1916604082015260540190565b6040516020818303038152906040528051906020012060001c6102e99190610deb565b92915050565b6000546001600160a01b031633146103225760405162461bcd60e51b815260040161031990610e0d565b60405180910390fd5b6001600160a01b0381166103485760405162461bcd60e51b815260040161031990610e42565b600354600480546001600160a01b0319166001600160a01b0384811691821790925560408051929093168083526020830191909152917f1ffdd5f1a36ecd8cd0247290aaee4d37a17e72199786461806036977107a65e791015b60405180910390a15050565b6000546001600160a01b031633146103d85760405162461bcd60e51b815260040161031990610e0d565b6103e0610a29565b565b6000546001600160a01b0316331461040c5760405162461bcd60e51b815260040161031990610e0d565b6103e06000610abc565b6000546001600160a01b031633146104405760405162461bcd60e51b815260040161031990610e0d565b6103e0610b0c565b6000546001600160a01b031633146104725760405162461bcd60e51b815260040161031990610e0d565b6001600160a01b0381166104985760405162461bcd60e51b815260040161031990610e42565b600380546001600160a01b038381166001600160a01b031983168117909355604080519190921680825260208201939093527f116af77d84201bbee47eaf4abaa38e36531db07f623449a1084fc18288c8d72691016103a2565b6000546001600160a01b0316331461051c5760405162461bcd60e51b815260040161031990610e0d565b600281511015801561053057506005815111155b61057c5760405162461bcd60e51b815260206004820152601860248201527f496e76616c6964206e6577206172726179206c656e67746800000000000000006044820152606401610319565b600060058054806020026020016040519081016040528092919081815260200182805480156105ca57602002820191906000526020600020905b8154815260200190600101908083116105b6575b505085519394506105e693600593506020870192509050610b87565b507f63bffba4ee224e13152402e70cf97c97c8d9ce70d2e65b761c209777e7c3dfb481836040516103a2929190610ead565b6000546001600160a01b031633146106425760405162461bcd60e51b815260040161031990610e0d565b6001600160a01b0381166106685760405162461bcd60e51b815260040161031990610e42565b600280546001600160a01b03838116610100818102610100600160a81b031985161790945560408051949093049091168084526020840191909152917f41e7c887e5abf2cf9b98172861c441c1d1c5a278cdcf8ba9ffce35500822a9af91016103a2565b6000546001600160a01b031633146106f65760405162461bcd60e51b815260040161031990610e0d565b6001600160a01b03811661075b5760405162461bcd60e51b815260206004820152602660248201527f4f776e61626c653a206e6577206f776e657220697320746865207a65726f206160448201526564647265737360d01b6064820152608401610319565b61076481610abc565b50565b60025460ff16156107ad5760405162461bcd60e51b815260206004820152601060248201526f14185d5cd8589b194e881c185d5cd95960821b6044820152606401610319565b6002600154036107ff5760405162461bcd60e51b815260206004820152601f60248201527f5265656e7472616e637947756172643a207265656e7472616e742063616c6c006044820152606401610319565b60026001556000610810606461028b565b905060008060005b60055460ff821610156108785760058160ff168154811061083b5761083b610edb565b9060005260206000200154836108519190610f07565b925082841015610866578060ff169150610878565b8061087081610f1a565b915050610818565b506003546001600160a01b031663f5298aca336004805460408051630829844b60e01b815290516001600160a01b0390921692630829844b9282820192602092908290030181865afa1580156108d2573d6000803e3d6000fd5b505050506040513d601f19601f820116820180604052508101906108f69190610f39565b6040516001600160e01b031960e085901b1681526001600160a01b039092166004830152602482015260016044820152606401600060405180830381600087803b15801561094357600080fd5b505af1158015610957573d6000803e3d6000fd5b50506002546000925061010090046001600160a01b031690506340c10f19336040516001600160e01b031960e084901b1681526001600160a01b039091166004820152602481018590526044016020604051808303816000875af11580156109c3573d6000803e3d6000fd5b505050506040513d601f19601f820116820180604052508101906109e79190610f39565b60405181815290915033907fc4b27f09c64550fd678a5b3c3a00f454814732e346e0f1c79d0add8f980346de9060200160405180910390a25050600180555050565b60025460ff16610a725760405162461bcd60e51b815260206004820152601460248201527314185d5cd8589b194e881b9bdd081c185d5cd95960621b6044820152606401610319565b6002805460ff191690557f5db9ee0a495bf2e6ff9c91a7834c1ba4fdd244a5e8aa4e537bd38aeae4b073aa335b6040516001600160a01b03909116815260200160405180910390a1565b600080546001600160a01b038381166001600160a01b0319831681178455604051919092169283917f8be0079c531659141344cd1fd0a4f28419497f9722a3daafe3b4186f6b6457e09190a35050565b60025460ff1615610b525760405162461bcd60e51b815260206004820152601060248201526f14185d5cd8589b194e881c185d5cd95960821b6044820152606401610319565b6002805460ff191660011790557f62e78cea01bee320cd4e420270b5ea74000d11b0c9f74754ebdbfc544b05a258610a9f3390565b828054828255906000526020600020908101928215610bc2579160200282015b82811115610bc2578251825591602001919060010190610ba7565b50610bce929150610bd2565b5090565b5b80821115610bce5760008155600101610bd3565b600060208284031215610bf957600080fd5b5035919050565b80356001600160a01b0381168114610c1757600080fd5b919050565b600060208284031215610c2e57600080fd5b610c3782610c00565b9392505050565b634e487b7160e01b600052604160045260246000fd5b604051601f8201601f1916810167ffffffffffffffff81118282101715610c7d57610c7d610c3e565b604052919050565b60008060008060808587031215610c9b57600080fd5b610ca485610c00565b93506020610cb3818701610c00565b935060408601359250606086013567ffffffffffffffff80821115610cd757600080fd5b818801915088601f830112610ceb57600080fd5b813581811115610cfd57610cfd610c3e565b610d0f601f8201601f19168501610c54565b91508082528984828501011115610d2557600080fd5b808484018584013760008482840101525080935050505092959194509250565b60006020808385031215610d5857600080fd5b823567ffffffffffffffff80821115610d7057600080fd5b818501915085601f830112610d8457600080fd5b813581811115610d9657610d96610c3e565b8060051b9150610da7848301610c54565b8181529183018401918481019088841115610dc157600080fd5b938501935b83851015610ddf57843582529385019390850190610dc6565b98975050505050505050565b600082610e0857634e487b7160e01b600052601260045260246000fd5b500690565b6020808252818101527f4f776e61626c653a2063616c6c6572206973206e6f7420746865206f776e6572604082015260600190565b60208082526016908201527543616e6e6f74206265207a65726f206164647265737360501b604082015260600190565b600081518084526020808501945080840160005b83811015610ea257815187529582019590820190600101610e86565b509495945050505050565b604081526000610ec06040830185610e72565b8281036020840152610ed28185610e72565b95945050505050565b634e487b7160e01b600052603260045260246000fd5b634e487b7160e01b600052601160045260246000fd5b808201808211156102e9576102e9610ef1565b600060ff821660ff8103610f3057610f30610ef1565b60010192915050565b600060208284031215610f4b57600080fd5b505191905056fea2646970667358221220ae1b3b8ed2a144d47b4309940fa0fcb10763b1effabe6825b4b3f0b002e35e6464736f6c63430008110033",
  "linkReferences": {},
  "deployedLinkReferences": {}
}