{
  "_format": "hh-sol-artifact-1",
  "contractName": "Market",
  "sourceName": "contracts/Market.sol",
  "abi": [
    {
      "inputs": [
        {
          "internalType": "address payable",
          "name": "payee_",
          "type": "address"
        }
      ],
      "stateMutability": "nonpayable",
      "type": "constructor"
    },
    {
      "anonymous": false,
      "inputs": [
        {
          "indexed": false,
          "internalType": "uint256",
          "name": "previousFeeDenominator",
          "type": "uint256"
        },
        {
          "indexed": false,
          "internalType": "uint256",
          "name": "newFeeDenominator",
          "type": "uint256"
        }
      ],
      "name": "FeeDenominatorUpdated",
      "type": "event"
    },
    {
      "anonymous": false,
      "inputs": [
        {
          "indexed": false,
          "internalType": "uint256",
          "name": "previousFee",
          "type": "uint256"
        },
        {
          "indexed": false,
          "internalType": "uint256",
          "name": "newFee",
          "type": "uint256"
        }
      ],
      "name": "FeeUpdated",
      "type": "event"
    },
    {
      "anonymous": false,
      "inputs": [
        {
          "indexed": true,
          "internalType": "address",
          "name": "seller",
          "type": "address"
        },
        {
          "indexed": true,
          "internalType": "address",
          "name": "collection",
          "type": "address"
        },
        {
          "indexed": false,
          "internalType": "uint256",
          "name": "collectionId",
          "type": "uint256"
        },
        {
          "indexed": false,
          "internalType": "uint256",
          "name": "amount",
          "type": "uint256"
        },
        {
          "indexed": false,
          "internalType": "address",
          "name": "token",
          "type": "address"
        },
        {
          "indexed": false,
          "internalType": "uint256",
          "name": "price",
          "type": "uint256"
        }
      ],
      "name": "GoodsAdded",
      "type": "event"
    },
    {
      "anonymous": false,
      "inputs": [
        {
          "indexed": true,
          "internalType": "address",
          "name": "seller",
          "type": "address"
        },
        {
          "indexed": true,
          "internalType": "address",
          "name": "collection",
          "type": "address"
        },
        {
          "indexed": false,
          "internalType": "uint256",
          "name": "collectionId",
          "type": "uint256"
        },
        {
          "indexed": false,
          "internalType": "uint256",
          "name": "index",
          "type": "uint256"
        }
      ],
      "name": "GoodsRemoved",
      "type": "event"
    },
    {
      "anonymous": false,
      "inputs": [
        {
          "indexed": true,
          "internalType": "address",
          "name": "previousOwner",
          "type": "address"
        },
        {
          "indexed": true,
          "internalType": "address",
          "name": "newOwner",
          "type": "address"
        }
      ],
      "name": "OwnershipTransferred",
      "type": "event"
    },
    {
      "anonymous": false,
      "inputs": [
        {
          "indexed": false,
          "internalType": "address",
          "name": "previousPayee",
          "type": "address"
        },
        {
          "indexed": false,
          "internalType": "address",
          "name": "newPayee",
          "type": "address"
        }
      ],
      "name": "PayeeUpdated",
      "type": "event"
    },
    {
      "anonymous": false,
      "inputs": [
        {
          "indexed": true,
          "internalType": "address",
          "name": "buyer",
          "type": "address"
        },
        {
          "indexed": true,
          "internalType": "address",
          "name": "collection",
          "type": "address"
        },
        {
          "indexed": false,
          "internalType": "uint256",
          "name": "index",
          "type": "uint256"
        },
        {
          "indexed": false,
          "internalType": "uint256",
          "name": "collectionId",
          "type": "uint256"
        },
        {
          "indexed": false,
          "internalType": "uint256",
          "name": "amount",
          "type": "uint256"
        },
        {
          "indexed": false,
          "internalType": "uint256",
          "name": "price",
          "type": "uint256"
        }
      ],
      "name": "Purchased",
      "type": "event"
    },
    {
      "anonymous": false,
      "inputs": [
        {
          "indexed": false,
          "internalType": "address",
          "name": "collection",
          "type": "address"
        },
        {
          "indexed": false,
          "internalType": "bytes4",
          "name": "interfaceId",
          "type": "bytes4"
        }
      ],
      "name": "WhitelistedCollectionAdded",
      "type": "event"
    },
    {
      "anonymous": false,
      "inputs": [
        {
          "indexed": false,
          "internalType": "address",
          "name": "collection",
          "type": "address"
        }
      ],
      "name": "WhitelistedCollectionRemoved",
      "type": "event"
    },
    {
      "anonymous": false,
      "inputs": [
        {
          "indexed": false,
          "internalType": "address",
          "name": "token",
          "type": "address"
        }
      ],
      "name": "WhitelistedTokenAdded",
      "type": "event"
    },
    {
      "anonymous": false,
      "inputs": [
        {
          "indexed": false,
          "internalType": "address",
          "name": "token",
          "type": "address"
        }
      ],
      "name": "WhitelistedTokenRemoved",
      "type": "event"
    },
    {
      "inputs": [
        {
          "internalType": "address",
          "name": "collection",
          "type": "address"
        },
        {
          "internalType": "uint256",
          "name": "collectionId",
          "type": "uint256"
        },
        {
          "internalType": "uint256",
          "name": "amount",
          "type": "uint256"
        },
        {
          "internalType": "address",
          "name": "token",
          "type": "address"
        },
        {
          "internalType": "uint256",
          "name": "price",
          "type": "uint256"
        }
      ],
      "name": "addGoods",
      "outputs": [],
      "stateMutability": "nonpayable",
      "type": "function"
    },
    {
      "inputs": [
        {
          "internalType": "address",
          "name": "collection",
          "type": "address"
        }
      ],
      "name": "addWhitelistedCollection",
      "outputs": [],
      "stateMutability": "nonpayable",
      "type": "function"
    },
    {
      "inputs": [
        {
          "internalType": "address",
          "name": "token",
          "type": "address"
        }
      ],
      "name": "addWhitelistedToken",
      "outputs": [],
      "stateMutability": "nonpayable",
      "type": "function"
    },
    {
      "inputs": [
        {
          "internalType": "uint256",
          "name": "",
          "type": "uint256"
        }
      ],
      "name": "allGoods",
      "outputs": [
        {
          "internalType": "address payable",
          "name": "seller",
          "type": "address"
        },
        {
          "internalType": "address",
          "name": "collection",
          "type": "address"
        },
        {
          "internalType": "uint256",
          "name": "collectionId",
          "type": "uint256"
        },
        {
          "internalType": "uint256",
          "name": "amount",
          "type": "uint256"
        },
        {
          "internalType": "address",
          "name": "token",
          "type": "address"
        },
        {
          "internalType": "uint256",
          "name": "price",
          "type": "uint256"
        }
      ],
      "stateMutability": "view",
      "type": "function"
    },
    {
      "inputs": [],
      "name": "fee",
      "outputs": [
        {
          "internalType": "uint256",
          "name": "",
          "type": "uint256"
        }
      ],
      "stateMutability": "view",
      "type": "function"
    },
    {
      "inputs": [],
      "name": "feeDenominator",
      "outputs": [
        {
          "internalType": "uint256",
          "name": "",
          "type": "uint256"
        }
      ],
      "stateMutability": "view",
      "type": "function"
    },
    {
      "inputs": [
        {
          "internalType": "address",
          "name": "token",
          "type": "address"
        }
      ],
      "name": "isWhitelistedCollection",
      "outputs": [
        {
          "internalType": "bool",
          "name": "",
          "type": "bool"
        }
      ],
      "stateMutability": "view",
      "type": "function"
    },
    {
      "inputs": [
        {
          "internalType": "address",
          "name": "",
          "type": "address"
        },
        {
          "internalType": "address",
          "name": "",
          "type": "address"
        },
        {
          "internalType": "uint256[]",
          "name": "",
          "type": "uint256[]"
        },
        {
          "internalType": "uint256[]",
          "name": "",
          "type": "uint256[]"
        },
        {
          "internalType": "bytes",
          "name": "",
          "type": "bytes"
        }
      ],
      "name": "onERC1155BatchReceived",
      "outputs": [
        {
          "internalType": "bytes4",
          "name": "",
          "type": "bytes4"
        }
      ],
      "stateMutability": "nonpayable",
      "type": "function"
    },
    {
      "inputs": [
        {
          "internalType": "address",
          "name": "",
          "type": "address"
        },
        {
          "internalType": "address",
          "name": "",
          "type": "address"
        },
        {
          "internalType": "uint256",
          "name": "",
          "type": "uint256"
        },
        {
          "internalType": "uint256",
          "name": "",
          "type": "uint256"
        },
        {
          "internalType": "bytes",
          "name": "",
          "type": "bytes"
        }
      ],
      "name": "onERC1155Received",
      "outputs": [
        {
          "internalType": "bytes4",
          "name": "",
          "type": "bytes4"
        }
      ],
      "stateMutability": "nonpayable",
      "type": "function"
    },
    {
      "inputs": [
        {
          "internalType": "address",
          "name": "",
          "type": "address"
        },
        {
          "internalType": "address",
          "name": "",
          "type": "address"
        },
        {
          "internalType": "uint256",
          "name": "",
          "type": "uint256"
        },
        {
          "internalType": "bytes",
          "name": "",
          "type": "bytes"
        }
      ],
      "name": "onERC721Received",
      "outputs": [
        {
          "internalType": "bytes4",
          "name": "",
          "type": "bytes4"
        }
      ],
      "stateMutability": "nonpayable",
      "type": "function"
    },
    {
      "inputs": [],
      "name": "owner",
      "outputs": [
        {
          "internalType": "address",
          "name": "",
          "type": "address"
        }
      ],
      "stateMutability": "view",
      "type": "function"
    },
    {
      "inputs": [],
      "name": "payee",
      "outputs": [
        {
          "internalType": "address payable",
          "name": "",
          "type": "address"
        }
      ],
      "stateMutability": "view",
      "type": "function"
    },
    {
      "inputs": [
        {
          "internalType": "uint256",
          "name": "index",
          "type": "uint256"
        }
      ],
      "name": "purchase",
      "outputs": [],
      "stateMutability": "payable",
      "type": "function"
    },
    {
      "inputs": [
        {
          "internalType": "uint256",
          "name": "index",
          "type": "uint256"
        }
      ],
      "name": "removeGoods",
      "outputs": [],
      "stateMutability": "nonpayable",
      "type": "function"
    },
    {
      "inputs": [
        {
          "internalType": "address",
          "name": "collection",
          "type": "address"
        }
      ],
      "name": "removeWhitelistedCollection",
      "outputs": [],
      "stateMutability": "nonpayable",
      "type": "function"
    },
    {
      "inputs": [
        {
          "internalType": "address",
          "name": "token",
          "type": "address"
        }
      ],
      "name": "removeWhitelistedToken",
      "outputs": [],
      "stateMutability": "nonpayable",
      "type": "function"
    },
    {
      "inputs": [],
      "name": "renounceOwnership",
      "outputs": [],
      "stateMutability": "nonpayable",
      "type": "function"
    },
    {
      "inputs": [
        {
          "internalType": "uint256",
          "name": "newFee",
          "type": "uint256"
        }
      ],
      "name": "setFee",
      "outputs": [],
      "stateMutability": "nonpayable",
      "type": "function"
    },
    {
      "inputs": [
        {
          "internalType": "uint256",
          "name": "newFeeDenominator",
          "type": "uint256"
        }
      ],
      "name": "setFeeDenominator",
      "outputs": [],
      "stateMutability": "nonpayable",
      "type": "function"
    },
    {
      "inputs": [
        {
          "internalType": "address payable",
          "name": "newPayee",
          "type": "address"
        }
      ],
      "name": "setPayee",
      "outputs": [],
      "stateMutability": "nonpayable",
      "type": "function"
    },
    {
      "inputs": [
        {
          "internalType": "bytes4",
          "name": "interfaceId",
          "type": "bytes4"
        }
      ],
      "name": "supportsInterface",
      "outputs": [
        {
          "internalType": "bool",
          "name": "",
          "type": "bool"
        }
      ],
      "stateMutability": "view",
      "type": "function"
    },
    {
      "inputs": [
        {
          "internalType": "address",
          "name": "newOwner",
          "type": "address"
        }
      ],
      "name": "transferOwnership",
      "outputs": [],
      "stateMutability": "nonpayable",
      "type": "function"
    },
    {
      "inputs": [
        {
          "internalType": "address",
          "name": "",
          "type": "address"
        }
      ],
      "name": "whitelistedCollections",
      "outputs": [
        {
          "internalType": "bytes4",
          "name": "",
          "type": "bytes4"
        }
      ],
      "stateMutability": "view",
      "type": "function"
    },
    {
      "inputs": [
        {
          "internalType": "address",
          "name": "",
          "type": "address"
        }
      ],
      "name": "whitelistedTokens",
      "outputs": [
        {
          "internalType": "bool",
          "name": "",
          "type": "bool"
        }
      ],
      "stateMutability": "view",
      "type": "function"
    },
    {
      "stateMutability": "payable",
      "type": "receive"
    }
  ],
  "bytecode": "0x60806040526101f46003556127106004553480156200001d57600080fd5b506040516200252e3803806200252e833981016040819052620000409162000120565b6200004b33620000d0565b600180556001600160a01b038116620000aa5760405162461bcd60e51b815260206004820152601c60248201527f50617965652063616e6e6f74206265207a65726f206164647265737300000000604482015260640160405180910390fd5b600280546001600160a01b0319166001600160a01b039290921691909117905562000152565b600080546001600160a01b038381166001600160a01b0319831681178455604051919092169283917f8be0079c531659141344cd1fd0a4f28419497f9722a3daafe3b4186f6b6457e09190a35050565b6000602082840312156200013357600080fd5b81516001600160a01b03811681146200014b57600080fd5b9392505050565b6123cc80620001626000396000f3fe60806040526004361061014f5760003560e01c80638a30104a116100b6578063d18e629c1161006f578063d18e629c14610430578063daf9c21014610450578063ddca3f4314610480578063efef39a114610496578063f23a6e61146104a9578063f2fde38b146104d557600080fd5b80638a30104a146103135780638da5cb5b14610333578063ae90b21314610365578063bc197c8114610385578063be28db3c146103b1578063c00cafdc1461041057600080fd5b8063410459ad11610108578063410459ad1461024e5780634f05cbd81461026e57806362553e141461029e57806369fe0e2d146102be578063715018a6146102de5780638214ff3e146102f357600080fd5b806301ffc9a71461015b578063150b7a0214610190578063180b0d7e146101c85780631c88705d146101ec578063363cb34d1461020e5780633e0168dd1461022e57600080fd5b3661015657005b600080fd5b34801561016757600080fd5b5061017b610176366004611df9565b6104f5565b60405190151581526020015b60405180910390f35b34801561019c57600080fd5b506101bb6101ab366004611eef565b630a85bd0160e11b949350505050565b6040516101879190611f5b565b3480156101d457600080fd5b506101de60045481565b604051908152602001610187565b3480156101f857600080fd5b5061020c610207366004611f70565b61052c565b005b34801561021a57600080fd5b5061020c610229366004611f70565b610617565b34801561023a57600080fd5b5061020c610249366004611f8d565b610754565b34801561025a57600080fd5b5061020c610269366004611f70565b610a60565b34801561027a57600080fd5b506101bb610289366004611f70565b60066020526000908152604090205460e01b81565b3480156102aa57600080fd5b5061020c6102b9366004611f70565b610aec565b3480156102ca57600080fd5b5061020c6102d9366004611fdf565b610bbf565b3480156102ea57600080fd5b5061020c610c27565b3480156102ff57600080fd5b5061017b61030e366004611f70565b610c5d565b34801561031f57600080fd5b5061020c61032e366004611fdf565b610c87565b34801561033f57600080fd5b506000546001600160a01b03165b6040516001600160a01b039091168152602001610187565b34801561037157600080fd5b5060025461034d906001600160a01b031681565b34801561039157600080fd5b506101bb6103a036600461206d565b63bc197c8160e01b95945050505050565b3480156103bd57600080fd5b506103d16103cc366004611fdf565b610cef565b604080516001600160a01b03978816815295871660208701528501939093526060840191909152909216608082015260a081019190915260c001610187565b34801561041c57600080fd5b5061020c61042b366004611fdf565b610d46565b34801561043c57600080fd5b5061020c61044b366004611f70565b611043565b34801561045c57600080fd5b5061017b61046b366004611f70565b60076020526000908152604090205460ff1681565b34801561048c57600080fd5b506101de60035481565b61020c6104a4366004611fdf565b6112fe565b3480156104b557600080fd5b506101bb6104c436600461211b565b63f23a6e6160e01b95945050505050565b3480156104e157600080fd5b5061020c6104f0366004611f70565b6118fa565b60006001600160e01b03198216630271189760e51b148061052657506301ffc9a760e01b6001600160e01b03198316145b92915050565b6000546001600160a01b0316331461055f5760405162461bcd60e51b815260040161055690612184565b60405180910390fd5b6001600160a01b03811660009081526007602052604090205460ff166105bf5760405162461bcd60e51b8152602060048201526015602482015274151bdad95b881b9bdd081dda1a5d195b1a5cdd1959605a1b6044820152606401610556565b6001600160a01b038116600081815260076020908152604091829020805460ff1916905590519182527f3e4130008265a57fa3e4f3cc37bc1d691652b77b4407bd08ddea997b2eda436791015b60405180910390a150565b6000546001600160a01b031633146106415760405162461bcd60e51b815260040161055690612184565b6001600160a01b0381166106975760405162461bcd60e51b815260206004820152601c60248201527f546f6b656e2063616e6e6f74206265207a65726f2061646472657373000000006044820152606401610556565b6001600160a01b03811660009081526007602052604090205460ff16156107005760405162461bcd60e51b815260206004820152601960248201527f546f6b656e20616c72656164792077686974656c6973746564000000000000006044820152606401610556565b6001600160a01b038116600081815260076020908152604091829020805460ff1916600117905590519182527f2645b1141d317aaace45484cb5db0f0d90c49cd11d6f05bb020bb45b191c4765910161060c565b6002600154036107765760405162461bcd60e51b8152600401610556906121b9565b600260015561078485610c5d565b6107d05760405162461bcd60e51b815260206004820152601a60248201527f436f6c6c656374696f6e206e6f742077686974656c69737465640000000000006044820152606401610556565b6001600160a01b0382161561083f576001600160a01b03821660009081526007602052604090205460ff1661083f5760405162461bcd60e51b8152602060048201526015602482015274151bdad95b881b9bdd081dda1a5d195b1a5cdd1959605a1b6044820152606401610556565b6001600160a01b038516600090815260066020526040902054637f53a73360e01b60e09190911b6001600160e01b031916016108e057604051635c46a7ef60e11b8152600193506001600160a01b0386169063b88d4fde906108a9903390309089906004016121f0565b600060405180830381600087803b1580156108c357600080fd5b505af11580156108d7573d6000803e3d6000fd5b50505050610945565b604051637921219560e11b81526001600160a01b0386169063f242432a90610912903390309089908990600401612223565b600060405180830381600087803b15801561092c57600080fd5b505af1158015610940573d6000803e3d6000fd5b505050505b60056040518060c001604052806109593390565b6001600160a01b039081168252888116602080840182905260408085018b905260608086018b9052898516608080880182905260a09788018b9052895460018082018c5560009b8c529a8690208a5160069092020180549189166001600160a01b03199283161781558a8701519b810180549c8a169c83169c909c17909b558985015160028c01558984015160038c01558982015160048c01805491909916911617909655969095015160059097019690965585518a8152908101899052808601949094529183018590529251909233927f2ca71f395535dfe13ea3077929cde9a97cde65dfcaa0336426a08d2bce34827a929081900390910190a3505060018055505050565b6000546001600160a01b03163314610a8a5760405162461bcd60e51b815260040161055690612184565b600280546001600160a01b038381166001600160a01b031983168117909355604080519190921680825260208201939093527fa9e5978bbfbf156599d86b750e4db433bc414c83e3ee93cae447582d6d42990b91015b60405180910390a15050565b6000546001600160a01b03163314610b165760405162461bcd60e51b815260040161055690612184565b610b1f81610c5d565b610b6b5760405162461bcd60e51b815260206004820152601a60248201527f436f6c6c656374696f6e206e6f742077686974656c69737465640000000000006044820152606401610556565b6001600160a01b038116600081815260066020908152604091829020805463ffffffff1916905590519182527f0c1f38a01270cb49fbf915151e8a1908ccf738f8c3d79a1677f8fd879b56bdef910161060c565b6000546001600160a01b03163314610be95760405162461bcd60e51b815260040161055690612184565b600380549082905560408051828152602081018490527f528d9479e9f9889a87a3c30c7f7ba537e5e59c4c85a37733b16e57c62df613029101610ae0565b6000546001600160a01b03163314610c515760405162461bcd60e51b815260040161055690612184565b610c5b6000611995565b565b6001600160a01b031660009081526006602052604090205460e01b6001600160e01b031916151590565b6000546001600160a01b03163314610cb15760405162461bcd60e51b815260040161055690612184565b600480549082905560408051828152602081018490527f63c01c19d746abc45acb8d83b8d0a8dd9f8f3806995fedd65ff8dd9be82b7c729101610ae0565b60058181548110610cff57600080fd5b60009182526020909120600690910201805460018201546002830154600384015460048501546005909501546001600160a01b039485169650928416949193909291169086565b600260015403610d685760405162461bcd60e51b8152600401610556906121b9565b6002600181905550600060058281548110610d8557610d8561225b565b60009182526020918290206040805160c081018252600690930290910180546001600160a01b0390811684526001820154811694840194909452600281015491830191909152600381015460608301526004810154909216608082015260059091015460a08201529050610df63390565b6001600160a01b031681600001516001600160a01b031614610e6d5760405162461bcd60e51b815260206004820152602a60248201527f43616c6c6572206d757374206265207468652073656c6c6572206f66207468696044820152697320616c6c476f6f647360b01b6064820152608401610556565b6020808201516001600160a01b0316600090815260069091526040902054637f53a73360e01b60e09190911b6001600160e01b03191601610f175760208101516001600160a01b031663b88d4fde303384604001516040518463ffffffff1660e01b8152600401610ee0939291906121f0565b600060405180830381600087803b158015610efa57600080fd5b505af1158015610f0e573d6000803e3d6000fd5b50505050610f88565b60208101516001600160a01b031663f242432a3033846040015185606001516040518563ffffffff1660e01b8152600401610f559493929190612223565b600060405180830381600087803b158015610f6f57600080fd5b505af1158015610f83573d6000803e3d6000fd5b505050505b60058281548110610f9b57610f9b61225b565b6000918252602080832060069290920290910180546001600160a01b0319908116825560018201805482169055600282018490556003820184905560048201805490911690556005019190915581810151825160408085015181519081529384018690526001600160a01b039283169392909116917f08569ef08de799c8c8bc6358b14804c719222355fa3870b46b463ddca6269ae6910160405180910390a3505060018055565b6000546001600160a01b0316331461106d5760405162461bcd60e51b815260040161055690612184565b6040516301ffc9a760e01b81526001600160a01b038216906301ffc9a7906110a0906380ac58cd60e01b90600401611f5b565b602060405180830381865afa1580156110bd573d6000803e3d6000fd5b505050506040513d601f19601f820116820180604052508101906110e19190612271565b8061115b57506040516301ffc9a760e01b81526001600160a01b038216906301ffc9a79061111a90636cdb3d1360e11b90600401611f5b565b602060405180830381865afa158015611137573d6000803e3d6000fd5b505050506040513d601f19601f8201168201806040525081019061115b9190612271565b6111b35760405162461bcd60e51b815260206004820152602360248201527f496e76616c696420636f6c6c656374696f6e20636f6e7472616374206164647260448201526265737360e81b6064820152608401610556565b6111bc81610c5d565b156112095760405162461bcd60e51b815260206004820152601e60248201527f436f6c6c656374696f6e20616c72656164792077686974656c697374656400006044820152606401610556565b6040516301ffc9a760e01b81526380ac58cd60e01b906001600160a01b038316906301ffc9a79061124590636cdb3d1360e11b90600401611f5b565b602060405180830381865afa158015611262573d6000803e3d6000fd5b505050506040513d601f19601f820116820180604052508101906112869190612271565b156112955750636cdb3d1360e11b5b6001600160a01b038216600081815260066020908152604091829020805463ffffffff191660e086901c17905581519283526001600160e01b03198416908301527f992d7d68fa41d53d4336ee27080ee3acc1701c2bf73b32b4a15de97015ad23bf9101610ae0565b6002600154036113205760405162461bcd60e51b8152600401610556906121b9565b600260018190555060006005828154811061133d5761133d61225b565b60009182526020918290206040805160c081018252600690930290910180546001600160a01b03908116808552600183015482169585019590955260028201549284019290925260038101546060840152600481015490911660808301526005015460a082015291506113f25760405162461bcd60e51b815260206004820152601d60248201527f546869732073616c65206973206e6f206c6f6e676572206163746976650000006044820152606401610556565b8051336001600160a01b039091160361144d5760405162461bcd60e51b815260206004820152601860248201527f746869732070757263686173652063616e27742073656c6600000000000000006044820152606401610556565b60008160a00151826060015161146391906122a9565b60808301519091506001600160a01b03166114c457803410156114bf5760405162461bcd60e51b8152602060048201526014602482015273125b9cdd59999a58da595b9d081c185e5b595b9d60621b6044820152606401610556565b6114de565b6114de3360808401516001600160a01b03169030846119e5565b60208201516040516301ffc9a760e01b81526000916001600160a01b0316906301ffc9a7906115189063152a902d60e11b90600401611f5b565b602060405180830381865afa158015611535573d6000803e3d6000fd5b505050506040513d601f19601f820116820180604052508101906115599190612271565b156116385760008084602001516001600160a01b0316632a55205a86604001518760a001516040518363ffffffff1660e01b81526004016115a4929190918252602082015260400190565b6040805180830381865afa1580156115c0573d6000803e3d6000fd5b505050506040513d601f19601f820116820180604052508101906115e491906122c0565b915091508460600151816115f891906122a9565b60808601519093506001600160a01b031661161c576116178284611a56565b611635565b6080850151611635906001600160a01b03168385611b74565b50505b60006004546003548461164b91906122a9565b61165591906122ee565b60808501519091506001600160a01b031661168557600254611680906001600160a01b031682611a56565b6116a4565b60025460808501516116a4916001600160a01b03918216911683611b74565b6000816116b18486612310565b6116bb9190612310565b60808601519091506001600160a01b03166116e15784516116dc9082611a56565b6116fe565b845160808601516116fe916001600160a01b039091169083611b74565b6020808601516001600160a01b0316600090815260069091526040902054637f53a73360e01b60e09190911b6001600160e01b031916016117a85760208501516001600160a01b031663b88d4fde303388604001516040518463ffffffff1660e01b8152600401611771939291906121f0565b600060405180830381600087803b15801561178b57600080fd5b505af115801561179f573d6000803e3d6000fd5b50505050611819565b60208501516001600160a01b031663f242432a3033886040015189606001516040518563ffffffff1660e01b81526004016117e69493929190612223565b600060405180830381600087803b15801561180057600080fd5b505af1158015611814573d6000803e3d6000fd5b505050505b60208501516001600160a01b0316336001600160a01b03167fd67ebb720e4f9789f32f7cb2c71ad8e5bf9e6aa4793028ee0bad71ecb43db4ae88886040015189606001518a60a00151604051611888949392919093845260208401929092526040830152606082015260800190565b60405180910390a3600586815481106118a3576118a361225b565b60009182526020822060069091020180546001600160a01b03199081168255600180830180548316905560028301849055600383018490556004830180549092169091556005909101919091558055505050505050565b6000546001600160a01b031633146119245760405162461bcd60e51b815260040161055690612184565b6001600160a01b0381166119895760405162461bcd60e51b815260206004820152602660248201527f4f776e61626c653a206e6577206f776e657220697320746865207a65726f206160448201526564647265737360d01b6064820152608401610556565b61199281611995565b50565b600080546001600160a01b038381166001600160a01b0319831681178455604051919092169283917f8be0079c531659141344cd1fd0a4f28419497f9722a3daafe3b4186f6b6457e09190a35050565b6040516001600160a01b0380851660248301528316604482015260648101829052611a509085906323b872dd60e01b906084015b60408051601f198184030181529190526020810180516001600160e01b03166001600160e01b031990931692909217909152611ba4565b50505050565b80471015611aa65760405162461bcd60e51b815260206004820152601d60248201527f416464726573733a20696e73756666696369656e742062616c616e63650000006044820152606401610556565b6000826001600160a01b03168260405160006040518083038185875af1925050503d8060008114611af3576040519150601f19603f3d011682016040523d82523d6000602084013e611af8565b606091505b5050905080611b6f5760405162461bcd60e51b815260206004820152603a60248201527f416464726573733a20756e61626c6520746f2073656e642076616c75652c207260448201527f6563697069656e74206d617920686176652072657665727465640000000000006064820152608401610556565b505050565b6040516001600160a01b038316602482015260448101829052611b6f90849063a9059cbb60e01b90606401611a19565b6000611bf9826040518060400160405280602081526020017f5361666545524332303a206c6f772d6c6576656c2063616c6c206661696c6564815250856001600160a01b0316611c769092919063ffffffff16565b805190915015611b6f5780806020019051810190611c179190612271565b611b6f5760405162461bcd60e51b815260206004820152602a60248201527f5361666545524332303a204552433230206f7065726174696f6e20646964206e6044820152691bdd081cdd58d8d9595960b21b6064820152608401610556565b6060611c858484600085611c8f565b90505b9392505050565b606082471015611cf05760405162461bcd60e51b815260206004820152602660248201527f416464726573733a20696e73756666696369656e742062616c616e636520666f6044820152651c8818d85b1b60d21b6064820152608401610556565b6001600160a01b0385163b611d475760405162461bcd60e51b815260206004820152601d60248201527f416464726573733a2063616c6c20746f206e6f6e2d636f6e74726163740000006044820152606401610556565b600080866001600160a01b03168587604051611d639190612347565b60006040518083038185875af1925050503d8060008114611da0576040519150601f19603f3d011682016040523d82523d6000602084013e611da5565b606091505b5091509150611db5828286611dc0565b979650505050505050565b60608315611dcf575081611c88565b825115611ddf5782518084602001fd5b8160405162461bcd60e51b81526004016105569190612363565b600060208284031215611e0b57600080fd5b81356001600160e01b031981168114611c8857600080fd5b6001600160a01b038116811461199257600080fd5b634e487b7160e01b600052604160045260246000fd5b604051601f8201601f1916810167ffffffffffffffff81118282101715611e7757611e77611e38565b604052919050565b600082601f830112611e9057600080fd5b813567ffffffffffffffff811115611eaa57611eaa611e38565b611ebd601f8201601f1916602001611e4e565b818152846020838601011115611ed257600080fd5b816020850160208301376000918101602001919091529392505050565b60008060008060808587031215611f0557600080fd5b8435611f1081611e23565b93506020850135611f2081611e23565b925060408501359150606085013567ffffffffffffffff811115611f4357600080fd5b611f4f87828801611e7f565b91505092959194509250565b6001600160e01b031991909116815260200190565b600060208284031215611f8257600080fd5b8135611c8881611e23565b600080600080600060a08688031215611fa557600080fd5b8535611fb081611e23565b945060208601359350604086013592506060860135611fce81611e23565b949793965091946080013592915050565b600060208284031215611ff157600080fd5b5035919050565b600082601f83011261200957600080fd5b8135602067ffffffffffffffff82111561202557612025611e38565b8160051b612034828201611e4e565b928352848101820192828101908785111561204e57600080fd5b83870192505b84831015611db557823582529183019190830190612054565b600080600080600060a0868803121561208557600080fd5b853561209081611e23565b945060208601356120a081611e23565b9350604086013567ffffffffffffffff808211156120bd57600080fd5b6120c989838a01611ff8565b945060608801359150808211156120df57600080fd5b6120eb89838a01611ff8565b9350608088013591508082111561210157600080fd5b5061210e88828901611e7f565b9150509295509295909350565b600080600080600060a0868803121561213357600080fd5b853561213e81611e23565b9450602086013561214e81611e23565b93506040860135925060608601359150608086013567ffffffffffffffff81111561217857600080fd5b61210e88828901611e7f565b6020808252818101527f4f776e61626c653a2063616c6c6572206973206e6f7420746865206f776e6572604082015260600190565b6020808252601f908201527f5265656e7472616e637947756172643a207265656e7472616e742063616c6c00604082015260600190565b6001600160a01b039384168152919092166020820152604081019190915260806060820181905260009082015260a00190565b6001600160a01b0394851681529290931660208301526040820152606081019190915260a06080820181905260009082015260c00190565b634e487b7160e01b600052603260045260246000fd5b60006020828403121561228357600080fd5b81518015158114611c8857600080fd5b634e487b7160e01b600052601160045260246000fd5b808202811582820484141761052657610526612293565b600080604083850312156122d357600080fd5b82516122de81611e23565b6020939093015192949293505050565b60008261230b57634e487b7160e01b600052601260045260246000fd5b500490565b8181038181111561052657610526612293565b60005b8381101561233e578181015183820152602001612326565b50506000910152565b60008251612359818460208701612323565b9190910192915050565b6020815260008251806020840152612382816040850160208701612323565b601f01601f1916919091016040019291505056fea2646970667358221220a99c1af13e19d0934b5d35c9ce1892ec1d35a7675a7f52cadc8255cdc9fecf3b64736f6c63430008110033",
  "linkReferences": {},
  "deployedLinkReferences": {}
}